:020000041000EA
:10000000002008205D0100101301001015010010F0
:100010001101001011010010110100101101001058
:100020001101001011010010110100101701001042
:100030001101001011010010190100101B01001026
:100040001D0100101D0100101D0100101D010010F8
:100050001D0100101D0100101D0100101D010010E8
:100060001D0100101D0100101D0100101D010010D8
:100070001D0100101D0100101D0100101D010010C8
:100080001D0100101D0100101D0100101D010010B8
:100090001D0100101D0100101D0100101D010010A8
:1000A0001D0100101D0100101D0100101D01001098
:1000B0001D0100101D0100101D0100101D01001088
:1000C0001D0100101D0100101D0100101D01001078
:1000D0001D0100101D0100101D0100101D01001068
:1000E0001D0100101D0100101D0100101D01001058
:1000F0001D0100101D0100101D0100101D01001048
:100100001D0100101D0100101D0100101D01001037
:1001100000BE00BE00BE00BE00BE00BEEFF3058004
:10012000103800BEF2EB8871AC380010C8380010EF
:10013000A801001090A31AE7D3DEFFFF42012110AF
:10014000FF0100004C3C0000793512AB4FF000007D
:100150002049086006C881F3088810474FF05040D6
:10016000006810B14FF00000F2E70FA40ECC002998
:1001700002D000F015F8F9E71749184A002000E00E
:1001800001C19142FCD1002080F30A8814498847BC
:10019000144988471449884700BEFDE701C901C2D8
:1001A0009A42FBD3704700BFC838001010010020EE
:1001B000CC050020843D001000000820000008202D
:1001C000843D0010001008200010082000000000EE
:1001D0007047000008ED00E0CC050020FC0700207F
:1001E000C52D001005030010BD2D0010F8B500BF8F
:1001F000064B0749C91A891048BF0131491003D07D
:10020000044B0BB101481847704700BFCC050020D4
:10021000CC0500200000000008B5054B1BB10549C6
:100220000548AFF30080BDE80840FFF7E1BF00BF1D
:1002300000000000B8070020703600102DE9F047DC
:1002400005460E4690461C462B4813468AB00A4681
:10025000294603F005F90746002849D029682046B9
:1002600001F12F4101F56001090D0631C9B200F01D
:1002700051F90123009322463168286802F09EFF5D
:10028000002305934FF44023D8F80090049309F11C
:10029000070809F103034FEA08384FF4803248EAAF
:1002A000C3184FF4F833CDE902230DF1080C0DF11A
:1002B000180E9CE80F008EE80F00DFF844A0CDF880
:1002C0001C8064019EE80F0044F080648CE80F00FD
:1002D00063464A4631682868CDE904A402F0B4FFB9
:1002E00018202B683168054A00FB0133C3F8C82089
:1002F00038460AB0BDE8F087E4370010000060EA35
:1003000000000840F0B540F6B8308FB000F078FD3E
:100310000E2000F01DF90E234FF0010242EC443094
:1003200042EC403006AE0A23314602A80AAAFFF783
:1003300085FF002800F0D5800C230BAA07A90DEB40
:100340000300FFF77BFF002800F0D4800D230CAAE8
:1003500008A904A8FFF772FF002800F0C8800B234B
:100360000DAA09A905A8FFF769FF002800F0BC80C5
:10037000B44601274FF4B47E02A95CF8045B51F83F
:10038000040B05F1100307FA03F344681C40FCD189
:1003900004358E4240F825E0EFD1584802F068FE5F
:1003A000DDE90631012202FA01F102FA03F30B43FF
:1003B0000899534802FA01F10B4309998A40134303
:1003C0001A0202F4706203F00F031343029A43F01F
:1003D000A06302F50052136002F04AFE002242F2CE
:1003E0001073013B01922244FBD101342146454860
:1003F00002F0BEFE642CF1D1434802F039FE012424
:100400000299069B486803F1180204FA02F20242BC
:1004100063D0083351F82330002B5ED10399079B3A
:10042000486803F1180204FA02F2024255D0083378
:1004300051F82330002B50D10499089B486803F1F0
:10044000180204FA02F2024247D0083351F823306E
:10045000002B42D10599099B486803F1180204FA60
:1004600002F2024239D0083351F823500A2000F03A
:10047000C7FC002DC4D1254802F0FAFD089E069A5B
:1004800004FA06FC079B099E029904FA06F604FA90
:1004900003F39440234343EA0C030C68334324EAF8
:1004A000030343F000730B6019480A9B02F0E2FF5C
:1004B0000B9B079A0399164802F0DCFF0C9B089AE5
:1004C0000499134802F0D6FF11480D9B099A05992B
:1004D00002F0D0FF28460FB0F0BD0A2000F090FCDB
:1004E0008EE700F099FE27E700F096FE40E700F067
:1004F00093FE34E700F090FE28E700BF703600104E
:1005000090360010C0360010D83600101437001096
:10051000E437001010B44FF480740C4B53F82020D3
:1005200003EB8003C00082F0400200F1804003F53D
:10053000805C02F0C00200F5203003F54053CCF897
:10054000002041601C605DF8044B7047048003404C
:1005500030B44FF0000343EC440043EC4000052569
:100560004FF480740B4BC20053F8201003EB800053
:1005700081F0400102F1804303F5203301F0C00215
:1005800000F5805100F540500A605D60046030BCA9
:10059000704700BF048003400FB400B583B0049CD3
:1005A000074802F065FD3CB105A92046019102F023
:1005B000EBFB044802F05CFD012002F0FDFB00BFF4
:1005C0002437001034370010EFF3108072B6064B5A
:1005D000D3E8CF1F01220029FAD1C3E8412F002917
:1005E000F6D1BFF35F8F70475B0700200023034AFB
:1005F000C2E88F3F80F31088704700BF5B07002080
:1006000070B58646EFF3108572B6124CD4E8CF6F02
:100610000120002EFAD1C4E8460F002EF6D1BFF318
:100620005F8F4FF0010CC80801F007030CFA03F3C9
:100630001EF800C01CEA030608D14CEA030C0EF8B1
:1006400000C0C4E88F6F85F3108870BD1046FFF7B7
:10065000A3FF00BF5B070020F8B5EFF3108772B669
:100660001C4ED6E8CF5F0124002DFAD1C6E8454FD5
:10067000002DF6D1BFF35F8F9A421BD8012502E00F
:100680000132934222D3D40810F804E002F0070CA0
:1006900005FA0CFC1EEA0C0FF2D14EEA0C0E00F823
:1006A00004E010460023C6E88F3F87F31088984285
:1006B00007DBF8BD0023C6E88F3F87F310884FF0B3
:1006C000FF300029F5D00698FFF766FF4FF0FF30A6
:1006D000E8E700BF5B07002000B5EFF3108E72B6AD
:1006E000104BD3E8CFCF0122BCF1000FF9D1C3E802
:1006F0004C2FBCF1000FF4D1BFF35F8F01224FEA02
:10070000D10C01F0070102FA01F110F80C2022EAE5
:10071000010200F80C200022C3E88F2F8EF310880E
:100720005DF804FB5B070020044A1078431CDBB231
:10073000182B28BF10231370704700BFA805002096
:100740004FF0E022936843F000539360704700BF7E
:100750000021044B03F12002C3E88F1F01339342B1
:10076000FAD17047500700204FF0E0234FF080325D
:10077000C3F80024C3F80424C3F80824C3F80C24E5
:10078000C3F81024C3F81424C3F81824C3F81C2495
:10079000C3F82024C3F82424C3F82824C3F82C2445
:1007A000C3F83024704700BF012300F01F029340BC
:1007B000400941B1800000F1604000F56140C0F89F
:1007C000803103607047024A203042F82030704781
:1007D00000E100E0F8B50D46EFF3108772B6124E57
:1007E000D6E8CF2F0123002AFAD1C6E8423F002ADB
:1007F000F6D1BFF35F8F0D4B00F110049B680C4ADC
:1008000053F82430934203D0994201D000F004FD04
:10081000064B9B6843F82450BFF35F8F0023C6E864
:100820008F3F87F31088F8BD5907002000ED00E0E6
:100830001D010010014B0B4403607047500700205E
:1008400070B5104C104DAC420ED2FF26236863B138
:10085000FFF76AFF01462046FFF7ECFFA680BFF3D3
:100860005F8F0834AC42F1D370BDFFF75DFF0146E6
:100870002046FFF7DFFF2671BFF35F8F0834AC42DD
:10088000E4D370BDC4050020CC0500200D4B1A68D0
:10089000EFF3108172B6D2E8CFCF0120BCF1000F88
:1008A000F9D1C2E84C0FBCF1000FF4D1BFF35F8F58
:1008B00000221B68C3E88F2F81F3108840BF0020FF
:1008C00000217047F80700202DE9F04F2DED028B35
:1008D00085B0EFF30583DBB2103B9A0818BF012205
:1008E0004FF0010103F0030B18BFAF4DAF4B08BF32
:1008F000AF4D0BEB820253F8226001FA0BF205F5C3
:1009000041539FEDA78B01925A602FE0B3881C04DE
:1009100040F19380B379002B40F0DD80B6F90820D8
:10092000002AC0F21E81736902EB420203EBC2038C
:10093000D3E90247B7F1FF3F08BFB4F1FF3F0ED044
:1009400005EB8B01AB6A0A69D21AE31A934205D30D
:1009500001232A6A03FA0BF3134200D10C612846E3
:1009600000F038FBA042B941C0F2FB80B6F9083074
:10097000019A002B0093EA63C8DBD6F8148003EBDE
:100980004309284608EBC907D7E9024A00F022FBD1
:10099000A04271EB0A01B9DBBAF1000FC0F2C380CB
:1009A000D7E90431834A934200F0ED807A88B6F9A2
:1009B000080092B242EA0040984702460B4652EACB
:1009C000030100F0B080002B80F2D180B4EB020E66
:1009D0006AEB030A38F93930C7E902EA002B95DBE4
:1009E000716903EB430201EBC202D2E90270BE451A
:1009F0007AEB000C4FEA430288DBB4462CF8083F40
:100A000006E003EB430001EBC0005A00D0E902709E
:100A1000BE451A447AEB000001EBC20404DB31F955
:100A20003230A446002BECDA28F83930009BACF8C1
:100A30000030B3881C043FF56DAF3369EFF31082CB
:100A400072B6D3E8CF0F01210028FAD1C3E8401FC6
:100A50000028F6D1BFF35F8F4FF6FF74B0880023F4
:100A6000316900B2B480C1E88F3F82F310889842A8
:100A7000FFF650AF0746A946746906F1080807EB70
:100A8000470E04EBCE03D3E90250B6F90830C44652
:100A9000002B13DBB246009704E034F9363094465D
:100AA000002B09DB03EB430604EBC602D2E902711B
:100AB000BD4270EB0101F0DA5646009FACF80070C1
:100AC00034F93E7024F83E30002FD8DAB3794D4621
:100AD000002B3FF423AF0023B371B6F9083006F1C1
:100AE0000808581C3DD01A46776903E08046591C17
:100AF0003FF416AF03EB430107EBC100B0F802C0AF
:100B00001C461CF4004F9E4637F93130EED094421B
:100B100080ED028B05D0A8F80030328927F831200B
:100B200034817246E3E738F8393033813369EFF3C3
:100B3000108272B6D3E8CF0F01210028FAD1C3E8A2
:100B4000401F0028F6D1BFF35F8F7388316928F802
:100B50003930009B73800023C1E88F3F82F31088F7
:100B6000D4E640BF05B0BDEC028BBDE8F08F28464F
:100B7000CDE9022300F02EFA029A039B10EB020E3D
:100B800043EB010A26E708460B69029198470028C3
:100B9000C9D00299D1E9002311E700BFAFF300806B
:100BA000FFFFFFFFFFFFFFFF00800B40D00700208B
:100BB00000000B40C90800102DE9F84F364C25699C
:100BC0002DB1BDE8F84F0A213448FFF733BEDFF8F6
:100BD000E4800321404600F0EBF90326C4F80C80C2
:100BE000FFF7A2FD4FF0504C2D4B267003442361BC
:100BF000DCF800300F216370636961801D834FF062
:100C00000405A3F878504FF00505A3F890504FF075
:100C10000605A3F8A8504FF007050E214FF6FF7206
:100C200008274FF00A0EA3F8C0504FF001094FF00B
:100C30000C0C4FF0020B4FF0090A0D204FF00B0582
:100C4000A3F868111749A280A3F808E1A160A3F8EE
:100C500048B0A3F8F0A0A3F82051A3F838C1A3F836
:100C60005001A3F83090A3F86060A3F8D8701A8000
:100C70000D4B3046C8F820700C49DC60FFF7AAFD28
:100C800049463046FFF790FD094B0A211F6403488F
:100C9000BDE8F84FFFF7CEBDAC050020F8070020F7
:100CA00050070020FFFF1000D0070020C9080010E7
:100CB00000200B4000000B400146F0B50069EFF347
:100CC000108772B6D0E8CF5F0124002DFAD1C0E8BA
:100CD000454F002DF6D1BFF35F8FB1F902E04C69AB
:100CE0000EEB4E0CBEF1000F4FEACC05086904EB89
:100CF000CC0C3CDB665B4E800026C0E88F6F87F330
:100D00001088BCF80200CCE902230130C0F30E00C9
:100D1000012838BF0120059BACF80200CCF8103048
:100D2000069B40EA0E40CCF814300B69EFF31082BA
:100D300072B6D3E8CFCF0127BCF1000FF9D1C3E8D9
:100D40004C7FBCF1000FF4D1BFF35F8F8B886353EE
:100D5000A1F804E00B69C3E88F6F82F310880122C9
:100D6000CB68097803F501538A405A60F0BD00232F
:100D7000C0E88F3F87F310884FF0FF30F0BD00BF11
:100D800003464089B0EB214F37DD58690A1402EB66
:100D9000420210B500EBC2001C69EFF3108C72B672
:100DA000D4E8CFEF0122BEF1000FF9D1C4E84E2FF5
:100DB000BEF1000FF4D1BFF35F8F428889B292B2C7
:100DC0008A4207D000221B69C3E88F2F8CF310885A
:100DD000002010BD42F40042428001210022186927
:100DE0009971C0E88F2F8CF310881C78DA68084658
:100DF00002F50153A140596010BD0020704700BFAB
:100E00002DE9F04182B0064600F0ECF84FF47A7319
:100E100004464FF0FF306FF00042E6FB0341A04272
:100E200072EB01033ABF044615460D46A61F45F175
:100E3000FF37B44275EB07033CBF0026374600F08E
:100E4000D1F8301A67EB0101012871F1000106DACF
:100E50002046294602B0BDE8F04100F0CDB800F0D0
:100E6000C1F8864267EB010100290ADB0021174B1C
:100E70003246009316483B460191FFF71DFF0130B3
:100E8000E6D04FF0000C134A1349536A9F4204D82E
:100E9000906AB042DCD29F42DAD10B68EFF3108047
:100EA00072B6D3E8CF8F5FF0010EB8F1000FF8D122
:100EB000C3E848EFB8F1000FF3D1BFF35F8F0B68C1
:100EC000C3E88FCF80F3108820BFDEE78D080010C5
:100ED000AC05002000000B40F80700202DE9F0438E
:100EE00006460D4683B0EFF30584E4B23CB12D4BCA
:100EF0005A6AAA421CD2002003B0BDE8F0832A4FF0
:100F0000D7F80C9097F80080484600F063F808F195
:100F1000040859F828301B1A301A65EB0101984271
:100F200071F1000110DB20BF1E4B5A6AAA42E2D3C6
:100F300014BF012400249B6AB34234BF204644F00E
:100F4000010003B0BDE8F08300F04CF8864265EB89
:100F50000101002914DB154B3846CDE90034324637
:100F60002B46FFF7A9FE011E0ADD0E4B5A6AAA4264
:100F700016D39B6AB34211D30B48FFF701FFB6E7C4
:100F8000084B5C6AAC42B6D3641B18BF01249B6A51
:100F9000B34234BF204644F00100ADE7AA42EBD192
:100FA00020BFE9E700000B40AC0500208D080010D1
:100FB00010B4054B054C064AA04214BF1846581CF5
:100FC0005DF8044BFFF71CBB7C07002000800B4042
:100FD000383700100346416A0A46986A596A8A42BD
:100FE000FAD17047034B596A0A46986A596A914286
:100FF000FAD1704700000B40074A536A9942FCD867
:10100000994207D1044B02E05A6A914202D19A6A8E
:101010009042F9D8704700BF00000B4000EB400C35
:101020004FEA8C0C0CF1804C0CF5803CF0B5164668
:10103000DCF80420051FB2F5803F38BF4FF4803242
:10104000EDB238BFCCF80420012D2AD94FF4006747
:10105000254C0CF54052176054F82020B2B9DCF84A
:101060000020012D82EA461202F0E0020CF58056C3
:1010700032602AD94FF4006144F820304FF48033B5
:101080000CF500521160CCF80430F0BD6769B7FB75
:10109000F2FE0EF1010E0EEB4E0EBEF1030EFCD26F
:1010A000DDE70129D2D103240CF540521460DCF8AD
:1010B0000820D207FBD5DCF800200B4C82EA461250
:1010C00002F0E0020CF5805632600122DCF800509C
:1010D0004D4005F00305356002FA01F1DCF8082007
:1010E0000A42FBD0C6E700BF84070020014B53F83B
:1010F000200070478407002070B4039D04682D030E
:1011000045EA03451B4B002CB3FBF1F3B2FBF3F6AE
:101110001FDB194A194B904214BF4FF480424FF421
:101120000042174C1A6003F580531A60A36832EA34
:101130000303FBD1212200F5405304330160866094
:101140001A600268002AFCDA0822C5601A6070BCC6
:101150007047036803F03F038B42DAD18368C3F31F
:101160000B03B342D5D1C36803F4EE23AB42D0D115
:10117000EDE700BF001BB7000080054000200240E3
:1011800000000240012300EB4000800000F180409D
:1011900000F5841041600360704700BF0023DB8AC4
:1011A000002242E800F2520201D410211847042123
:1011B000184700BF034AD2F82838002BFBD0BFF3F2
:1011C0005F8F704700000E400021044B044ABFF3BC
:1011D0005F8F43F8041B9342F9D170470C080E400F
:1011E0002C080E4010B44FF48D704FF42A64064A58
:1011F000064B07491460D06019605368002BFCDA75
:101200005DF8044B704700BF0080044000A004401C
:1012100000B0FA00704700BF08B50148FFF7BCF9FD
:101220005C37001038B5054C054DAC4204D254F87B
:10123000043B9847AC42FAD338BD00BF28360010B3
:101240006836001010B40748074C084B084A094993
:1012500004601A608B6832EA0303FBD15DF8044B2B
:10126000704700BF002002407F3BEFEF003002409C
:10127000F6FFF30300000240044BDB6CB3F5004FB4
:1012800003D14FF48022024BDA6470470000115002
:10129000002011504FF0E022044BD2F8881D0B4380
:1012A000C2F8883D10EE3004704700BF03033000E1
:1012B0006FF06041044B054A19609368DB4333F0DB
:1012C0006043FAD1704700BF003002400000024086
:1012D00010B545F25320FFF761FFBDE8104003460B
:1012E0000420184710B545F25320FFF757FFBDE81B
:1012F0001040034601201847FFF72ABA10B5054BE6
:10130000054C4FF488721846A16802F0D9F8A06025
:1013100010BD00BF0000002000ED00E0002370B50C
:101320002B4C82B0C4F88430FFF75CFF0122294BBC
:10133000DA63636C012BFCD10321264A244B116331
:101340009C6B012CFCD10226052521460523224A4F
:1013500022480096FFF7D0FE21462B46204A21481E
:101360000095FFF7C9FE0022042031461E4BFFF70F
:1013700055FE2146284600221C4BFFF74FFE002257
:10138000082011461A4BFFF749FE0022092011469A
:10139000174BFFF743FE002206201146134BFFF7C1
:1013A0003DFE0022114B07201146FFF737FE0420B7
:1013B000FFF79CFE00240F4BA3FB0035AD0CE0B201
:1013C00029460134FFF7DEFE062CF8D102B070BDCD
:1013D0000000014000300140002F68590000054026
:1013E000008C864700800540001BB70080D1F008C4
:1013F000006CDC0283DE1B4386B003B451FC08049E
:10140000CDE9020151FC0904CDE9040151EC0A04C3
:10141000CDE9060103BCF047BDE800504EEC00C426
:10142000BDE800504EEC01C4BDE800504EEC02C4D3
:1014300000BD000000B5FFF7DFFF02E010FE30F452
:10144000F8D441EC100443EC112400EE010410EE3A
:10145000010480EE200451EC1004704700B5FFF742
:10146000CBFF02E010FE30F4F8D441EC100443EC62
:10147000112400EE010410EE210480EE200451EC52
:101480003004704700B5FFF7B7FF02E010FE30F4FC
:10149000F8D410B541EC100443EC112451EC0404D1
:1014A00053EC0524A0FB024C5FF0000EE0FB03CEE2
:1014B000E1FB02CE4CEC20440024E1FB03E444ECCD
:1014C00030E480EE200451EC5004BDE81040704739
:1014D00000B5FFF791FF02E010FE30F4F8D441ECC4
:1014E000100443EC112451EC2104A0FB01126FEA1B
:1014F000820252FB100052FB12F252FB1000A0EBD2
:10150000D07C53EC04245CFB13F153EC1524A1FBB9
:10151000022001FB030053EC4424A2EB000050FB2B
:101520001CF24FEA111312EB017043EBE27140EA37
:10153000515020EA915020F0070053EC7524A0FB95
:10154000023C53EC752400FB03CC01FB02CC53ECB2
:101550000424ACEB824C40EA5C70A0F1010041EC49
:10156000400480EE200451EC7004704700B5FFF792
:1015700043FF02E010FE30F4F8D440EC700400EEBB
:10158000010410EE210480EE200451EC3004704779
:1015900000B5FFF731FF02E010FE30F4F8D440EC64
:1015A000600400EE010410EE210480EE200451ECF2
:1015B0003004704700B5FFF71FFF02E010FE30F463
:1015C000F8D441EC800400EE010410EE010480EE3A
:1015D000400410EE1304704700B5FFF70DFF02E062
:1015E00010FE30F4F8D441EC800400EE010410EE5B
:1015F000010480EE400410EE3304704700B5FFF79D
:10160000FBFE02E010FE30F4F8D441EC100443EC91
:10161000112400EE010410EE3004C0F30070704796
:1016200000B5FFF7E9FE02E010FE30F4F8D443EC19
:10163000102441EC110400EE010410EE30F48CBFD4
:1016400001200020704700BF00B5FFF7D5FE02E083
:1016500010FE30F4F8D443EC102441EC110400EEF9
:10166000010410EE30F42CBF01200020704700BFB1
:1016700000B5FFF7C1FE02E010FE30F4F8D441ECF3
:10168000100443EC112400EE010410EE30F42CBFE2
:1016900001200020704700BF00B5FFF7ADFE02E05B
:1016A00010FE30F4F8D441EC100443EC112400EEA9
:1016B000010410EE30F48CBF01200020704700BF01
:1016C000704700BF2DE9F04F83B09946DDE90DABBF
:1016D0000F9B884611469A07074616D1DA453AD23B
:1016E0000C460D46ABEB0A060E4422464B464146DD
:1016F00020200134B847B442F7D12946BAF1000F8F
:1017000008D1204603B0BDE8F08F0C46BAF1000FB7
:1017100010D00E4655460C9B2E449A440191721BE4
:101720004B46013D41461AF8010D3446B847002D9D
:10173000F5D101990F9B9B07E3D5651AAB45E0D91D
:1017400022464B46414620200135B8475D4504F10D
:101750000104F5D3D5E70C46BAF1000FD9D1D0E793
:101760002DE9F04F0F9FDDF8248017F0020F0A9C3F
:101770009DF82CA00E9DDDE90C9644D1F5BBB4423A
:1017800041D207F0010B04F1FF3C4FF0300EC4448E
:1017900004E00134A6420CF801EF01D9202CF8D165
:1017A000BBF1000F00F08880A5422CD904F1FF3C6A
:1017B0004FF0300EC44404E00134AC420CF801EFA9
:1017C00021D0202CF8D117F0100F0ED017F4806F15
:1017D00054D1A64263D0A54261D0B9F1100F50D0C8
:1017E000B9F1020F56D0202C29D12024CDE90B5776
:1017F000CDE90984BDE8F04FFFF764BF17F0010B96
:1018000034D1B442BFD317F0100F1ED017F4806F3D
:10181000E3D1002CDDD1B9F1100F63D0B9F1020F83
:1018200077D0302488F800400124BAF1000F11D19C
:101830007E0748D52B2608F804600134D6E72646F3
:1018400001344FF0300C08F806C0202CCDD0BAF18E
:10185000000FEDD02D2608F804600134CDE90B57B8
:10186000CDE90984BDE8F04FFFF72CBFBAF1000FB6
:1018700030D0B44205F1FF3585D395E7B9F1100FAB
:10188000B3D1BE063BD5202CAFD0582608F8046053
:101890000134A8E7202CA8D02646013407E0661EB4
:1018A000B9D0B9F1100F36D0B9F1020FC9D14FF04C
:1018B000620C08F806C096E717F0100FC5D017F4B1
:1018C000806F86D089E73E0790D5202608F804600F
:1018D00001348BE717F00C0F00D0013DB442FFF448
:1018E00052AF61E7BC0612D4782488F80040302457
:1018F00088F801400224BAF1000F99D0AAE7202C01
:101900003FF473AF782608F8046001346BE758247D
:10191000EBE76224E9E717F0200FA4F1020C04D0F2
:101920004FF0580E08F80CE08BE74FF0780E08F8EF
:101930000CE086E700B9704701F058BB10B1D1E95F
:1019400000311847704700BF2DE9F04F97B09DED6B
:10195000207BDDE9225B0746884651EC170B249C6F
:1019600099460C920B4602468DED047B0794FFF7D7
:1019700049FE002840F0F481DDE904014FF0FF3218
:101980006FF48013FFF750FE002840F01B81DDE963
:1019900004014FF0FF32AC4BFFF782FE002840F00D
:1019A000EE80DDE90401A4A3D3E90023FFF778FE6C
:1019B000002840F0D380DDE90401A1A3D3E900238E
:1019C000FFF732FE002840F0C980DDE90401002263
:1019D0000023FFF729FE002840F0E88023460D9001
:1019E00013F4806F08BF062530212B460EAAA5F1FF
:1019F000200605E0013BB34202F8011B00F0938191
:101A0000092BF7D81E46ED1ADDE90401FFF7D6FDD4
:101A10008E4B044603EBC60393ED007B8DED087BF4
:101A2000FFF7A8FD02460B46DDE90401FFF71AFDAA
:101A3000DDE90823FFF72AFD02460B46CDE90A231C
:101A4000FFF7CEFD8246FFF7A7FD02460B46DDE914
:101A50000A01FFF707FD02460B46CDE90A230022E3
:101A60007B4BFFF71DFE002800F0FE800AF1010A03
:101A70005046FFF791FD02460B46DDE90801FFF7EE
:101A8000E7FD10B14FF0000A0134002E00F0FD8098
:101A9000681E0EABDFF8CCC118440FE0ACFB0A2186
:101AA000C90801EB8102AAEB42023032BAF1090FF8
:101AB00000F8012F40F21C818A461D46202D05F1B9
:101AC000010306F1FF36E9D12025691E0EAB6148FE
:101AD000194410E080FB0462C3EBA20303EB830212
:101AE000A4EB420404F1300201351C4601F8012F39
:101AF000002B00F0EB80202D4FEAE473EAD1079B26
:101B000003F00303012B18D1BBF1000F15D00D9B7F
:101B1000002B00F00A810BF1FF3BBBF1200F0CD929
:101B20006B1E0EA930220B4405E001355D4503F81C
:101B3000012F80F0D180202DF7D1079B0EACCDE98D
:101B400002B341464B4638460C9A01950094FFF784
:101B5000B9FD8246504617B0BDE8F08F079B9DED5A
:101B6000047BCDE923B341464B4638460C9A8DEDB4
:101B7000207B229517B0BDE8F04F00F045B9610712
:101B800023464CBF042303234146219338464B464A
:101B9000079A48BF304CCDE922B258BF2F4C0C9A5F
:101BA000209417B0BDE8F04FFFF78CBDDDE90423AA
:101BB00000200021FFF756FC0123CDE904010D931D
:101BC00023460DE723469C0740F0AA80BBF1040F93
:101BD00040F2A6800C9B1D461C1F04EB0B0A2A46F4
:101BE0004B46414620200135B847AA45F7D1554616
:101BF0001B4C261F14F8010D2A464B464146B84798
:101C0000B44205F10105F5D1079B0AF1040A9807D2
:101C1000A0D50C9CAAEB04039B459BD952464B468E
:101C2000414620200AF1010AB847AAEB04035B45AC
:101C3000F4D38FE7AFF300800000000065CDCD4105
:101C40000000000065CDCDC1FFFFEF7F50380010D0
:101C50000000E03F67666666A8370010B0370010E6
:101C6000BC370010CDCCCCCC0022DDE90A01634B9F
:101C7000FFF7DAFC00287FF408AFBAF1000F6AD151
:101C80000AF1010A002E7FF403AF2046FFF772FC31
:101C900002460B46DDE90401FFF7E4FB02460B4672
:101CA000CDE904230022554BFFF7BEFC00287FF44A
:101CB0000CAFDDE904010022504BFFF7F1FC0028D6
:101CC0007FF403AF013424F00104FEE6079B03F028
:101CD0000303012B00F08280202D3FF42EAF0D9BDB
:101CE0007BB32D220DEB050383F83820013524E763
:101CF000202B3FF4E9AE0EAA15441E44302204E026
:101D0000202B05F8012F3FF4DFAE9E4203F10103C3
:101D1000F6D12E220DEB060383F83820751CD4E68D
:101D2000DDF830A063E720256EE6079B13F00C0F6B
:101D300050D00BF1FF3BAB453FF6F2AE202D3FF408
:101D4000FCAE079B5A0701D52B22CBE71B077FF57B
:101D5000F4AE2022C6E71AF0010F3FF496AE8FE7EB
:101D6000A60734D1BBF1030F31D90C9B1D46DC1EF5
:101D700004EB0B0A2A464B46414620200135B84762
:101D80005545F7D155461E4CE61E14F8010D2A465E
:101D90004B464146B847A64205F10105F5D1079BE0
:101DA0000AF1030A9D077FF5D5AE0C9CAAEB04034C
:101DB0009B457FF6CFAE52464B46414620200AF166
:101DC000010AB847AAEB04039B45F4D8C2E6DDF844
:101DD00030A0D7E7AB453FF6A3AEAEE6BBF1000FB0
:101DE0003FF47AAF0D9B002B9FD00BF1FF3B5D457D
:101DF000FFF496AE202D7FF474AF9EE60000E03F26
:101E0000B7370010000000002DE9F04F9FB02A9E68
:101E1000DDE92845074693460891099322462B465B
:101E2000204629460E96DDE92BA6FFF7EBFB00289E
:101E300040F0BE80204629464FF0FF32784BFFF736
:101E40002FFC002840F0B480204629464FF0FF3296
:101E50006FF48013FFF7E8FB002840F0A9802046CC
:101E6000294600220023FFF7DFFB002840F0D58140
:101E7000CDE90A45DDE90A239046994606F4006259
:101E800016F480630F92139340F0A18058EA09037F
:101E900040F0CA80002A40F0E38106230E9316F03A
:101EA0000202109240F0D4815346042B38BF042321
:101EB0000C920422043B12920F93204629460022E2
:101EC0000023FFF7B1FB002840F0F3819DED0A7B72
:101ED0000F9B5A4603930E9B8DED007B029326F4D5
:101EE000006304933846099B0899FFF72DFD0246CD
:101EF00016F0200F099B08990CBF6520452002F1C0
:101F00000108B8470C9A129B16AC5D1E82EAE27378
:101F1000A3EBE273D10F002622469946DFF804C1F5
:101F200001E0202E10D0CE46ACFB0930C00800EBFB
:101F30008003A9EB43033033BEF1090F814606F15C
:101F4000010602F8013BECD80523002006930A2382
:101F500005950094099D089C4246CDE90330CDE9E2
:101F600001612B4621463846FFF7FAFB109A80465E
:101F7000D2B1A0EB0B06B24516D90BEB06022B46ED
:101F8000214620200136B847B245F6D80BF1FF3381
:101F90005344CBF10102A3EB08034244924538BFFE
:101FA000002308F10108984440461FB0BDE8F08FB7
:101FB0005A463846CDE92845CDE92BA60E9C099B0B
:101FC00008992A941FB0BDE8F04FFFF7BDBC58EA4E
:101FD00009032BD1002A3FF462AF00230C930E9B20
:101FE0000C9A934200F3B9814FF00008204629462D
:101FF00000220023FFF718FB002840F013819DED1D
:102000000A7B26F4006646F480668DED287B5A46EE
:102010003846CDE92A8A099B08992C96D2E700BF59
:10202000FFFFEF7FCDCCCCCC06230E93C9F30A5033
:10203000A0F2FF30FFF79EFAC1A3D3E90023FFF718
:1020400025FAC1A3D3E90023FFF7F8F9C9F313096F
:10205000CDE90C0149F07F5140460022B24B41F4DA
:102060004011FFF7FFF9A4A3D3E90023FFF70EFA0D
:1020700002460B46DDE90C01FFF7E0F9FFF79EFA97
:102080000C90FFF777FA9EA3D3E900238046894698
:10209000FFF7FCF90022A54BFFF7D0F9FFF78EFA06
:1020A000034649464046129397A3D3E90023FFF71E
:1020B000EDF9804612988946FFF75CFA94A3D3E9BC
:1020C0000023FFF7E3F902460B4640464946FFF777
:1020D000C9F902460B4680468946FFF7D7F94246C2
:1020E0004B46CDE9100140464946FFF7A7F90022CB
:1020F000CDE91401DDE910018D4BFFF7EDF9002268
:102100008C4BFFF79BF902460B46DDE91001FFF708
:10211000E3F90022884BFFF791F902460B46DDE90F
:102120001001FFF7D9F942464B4680468946002008
:102130004FF08041FFF796F902460B46404649466C
:10214000FFF77CF902460B46DDE91401FFF7C4F9FD
:1021500000227A4BFFF772F9129B002203F2FF3C38
:102160004FEA0C53FFF792F980468946DDE90A01F0
:1021700042464B46FFF758FA50B10C9B4046013B94
:1021800049460C9300226B4BFFF7A6F9804689461F
:102190000C9A43466332C62A06F002021092494660
:1021A0000F9A2CD8002A5ED0042212920B433FF4DF
:1021B00016AFDDE90A0158A3D3E90023FFF75CFA63
:1021C00048B1DDE90A0156A3D3E90023FFF72CFA51
:1021D00000287FF404AF0E9B002B50D0139A002AE6
:1021E0007DD0013B0E93129B9A4505D9109B002B85
:1021F00000F0AE800223109300230F9344E022BB33
:10220000BAF1050F4FD906F00203002B49D105237F
:102210001293AAF105030F933AE005F100430A94E3
:102220000B9327E626F4006646F4806638462C9623
:10223000DDE90A67344607F100455A46CDE92A8AA6
:10224000CDE92845099B0899BCE605221292ADE725
:1022500000230222CDE90F3204220C9312922CE6C5
:102260004FF00508C2E6BAF1040F1FD9109B002BEE
:1022700078D104231293AAF104030F9304E0129B74
:102280009A4531D80E9B0F930C9B002B3FF415AE53
:10229000DDE90A0142464B46FFF71EF9CDE90A0186
:1022A0000BE60223109305231293F1E70423129304
:1022B000EAE7DDE90A45A0460F9B05F100490393D3
:1022C0000E9B5A46029326F4006304933846CDE9E8
:1022D0000089099B0899FFF737FB024608E6129B25
:1022E0009A4544D80F92CFE7109B8BB30E9B0F9368
:1022F00002231093C8E700BF61436F63A787D23FF3
:1023000071A379094F930A401655B5BBB16B0240D2
:10231000EF39FAFE422EE63F2D431CEBE2361A3F20
:102320000000000080842E410000F83F0000E03FE4
:1023300000002C4000002440000018400000F03F46
:10234000FB799F501344D33FB3C8608B288AC63FA4
:10235000129BAAEB03030F9396E7A3EB020808F185
:10236000FF3843E604231293022310938CE7109B5B
:10237000002BEDD002230F92109385E72DE9F04F4B
:102380009BB0249C954D0A94954CB1F1000A18BF5E
:10239000834625601878934C914608BFA34609935D
:1023A000002800F093824FF000080AE042464B46B6
:1023B000514608F10108D847099B1878002800F019
:1023C000CE80099B252803F101030993EED11C4619
:1023D0000023224612F8010BA0F1200110290AD88F
:1023E000DFE801F04009093C090909090909093830
:1023F000093409093000A0F130010929099440F29B
:102400008A802A2800F0F08000252E2800F096808F
:102410000026A0F1680112292DD8DFE811F049014A
:102420002C0043012C0038012C002C002C002C0027
:102430002C002C002C0027002C002C002C002C0041
:102440002C002700144643F00103C2E7144643F072
:102450000203BEE7144643F00403BAE7144643F010
:102460001003B6E7144643F00803B2E70999487829
:1024700043F480730132672809927ED8242840F201
:10248000C180A0F12502422A00F2BC80DFE812F0F0
:102490005001BA00BA00BA00BA00BA00BA00BA00D5
:1024A000BA00BA00BA00BA00BA00BA00BA00BA005C
:1024B000BA00BA00BA00BA00BA00BA00BA00BA004C
:1024C000BA00BA00BA00BA00BA00BA00BA00BA003C
:1024D000190137011901BA00BA00BA00BA00BA00EE
:1024E000BA00BA00BA00BA00BA00BA00BA00BA001C
:1024F000BA00BA00BA00BC01BA00BA00BA00BA0009
:10250000BA00BA00BA00BA00BA00BC015801BC0156
:10251000190137011901002500E0013205EB85059D
:1025200000EB45051078303DA0F130010929F4D9C0
:102530002E28099202F101027FF46AAF099943F44F
:10254000806348781146A0F13006092E40F22181BF
:102550002A2800F02F8109920026013259E74446CB
:10256000C14501D809F1FF384B464246514600208B
:10257000D84720461BB0BDE8F08FA0F16902D2B267
:102580000F2A3FD8012149F241079140394040F0DC
:10259000F3800A2A3DD0072A34D10A9D55F8042B2E
:1025A000002A00F0138143F0210012AB1F460B9369
:1025B00003E0202900F014811A4602F00F0423469C
:1025C000092C94BF303337330F2A07F8013B01F150
:1025D00001014FEA1213ECD802E100BF7D23001085
:1025E000B4070020C11600100A99099851F8045B3D
:1025F0004078002DCDE90921BCBF43F002036D42B4
:10260000013202E742464B46514608F10108D847DD
:10261000D2E60A99002E51F8047B18BF324638786A
:1026200008BF4FF0FF32002800F07B83BC18A4469F
:102630003A4604E012F8014F002C00F03F81944527
:10264000F8D16446E41B5A0540F12281B44228BF08
:10265000344613F0020300F088820223CDE90A51C8
:1026600042461D46464408E04B465146D84717F8B7
:10267000010F08F1010810B142464645F4D12B463E
:102680000B990A9D002B40F041810A9194E609992B
:1026900048786C287FF4ECAE0A46887843F440739F
:1026A0000332E8E6099943F4007348780132E2E620
:1026B00009994878682800F0038143F080030132CB
:1026C000D9E6672800F0D980472800F0DC8045284B
:1026D00000F0DB80CDE903530A9B0296073323F019
:1026E00007031C464246F4E802674B4651465846EB
:1026F000CDE900670A94FFF787FB80465CE6462831
:1027000008BF43F02003CDE903530A9B0296073329
:1027100023F007031C464246F4E802674B46514645
:102720005846CDE900670A94FFF70EF9804643E664
:1027300042464B465146252008F10108D8473BE662
:102740000A9A990702F1040408F1010640F1C680D3
:1027500010784B4642465146D847012D88BFA844C1
:1027600040F2BD8132464B46514620200136D847C3
:102770004645F7D10A941FE66F2800F0818040F2A9
:102780004882782800F090810A2723F01003BC4685
:1027900041E0002606EB860600EB4600A0F130067D
:1027A00011F8010FA0F13002092AF3D90A46099164
:1027B00001322EE6DDE9092151F8046B90780232EE
:1027C00009920A91013226EAE67622E623F0100009
:1027D00013F4806240F021003FF4E7AE12AB0B939C
:1027E0000B9B06900093082310200593002342467C
:1027F000CDE9023001914B46514658460496FEF70A
:10280000AFFF0A958046D7E5582862D0622840F08D
:102810008F800227BC4613F4806000F0DD8023F037
:102820000D0313F4007240F081810A990F1D13F417
:10283000807140F037825C060A9A40F13B81127841
:10284000002A40F04E8123F01003002800F0498157
:10285000114612AA0B92CDE90553CDE903C60191A9
:102860000B9B4246009300235146029358464B4629
:10287000FEF776FF0A9780469EE543F4006329E75A
:102880000827BC46C7E743F4006343F0200321E771
:1028900013F0020300F08E8102230A951E460D46B6
:1028A00042464B465146D84717F8010F08F1010838
:1028B0000028F5D1294633460A9DE3E6D41BC2E63B
:1028C0000A46887843F0C0030332D4E504468046C4
:1028D00046E6102743F02003BC469CE7012D40F25A
:1028E000F880464608F1FF372F4432464B465146A2
:1028F00020200136D847BE42F7D10A9B32461878CD
:1029000051464B46D847A8440A9455E54646A54249
:102910007FF6BBAEA844A8EB04080C4632464B46F3
:10292000514620200136D8474645F7D12146ACE62E
:1029300013F4806200F0BB804FF4806223F0110C2E
:102940001CF400770A9B4AD11CF4807003F1040444
:1029500040F034811CF0400F40F0A3801CF0800F49
:1029600000F0D381B3F9001081EAE177A7EBE177BA
:10297000BFB2CB0F002900F056813A4612A90F468C
:10298000DFF8D8E30B910A930C9501E020280FD0D3
:102990001546AEFB0213DB0803EB8301A2EB4101FA
:1029A0003031092D1A4600F1010007F8011BEDD85E
:1029B0000A9B0C9DCDE9055CCDE9010304960B9BB8
:1029C000424600930A235146039358464B46FEF76E
:1029D000C7FE0A948046EFE423F00C0321E7073397
:1029E00023F00703194608465B6850F8081BDF0F01
:1029F0000A9051EA030062D1002A40F09F811346F9
:102A0000114612AACDE90C7500201546CDE90E68D5
:102A1000DFF848E30B9201E020282DD05A1842F14C
:102A20000002AEFB027828F0030707EB9807D21BE1
:102A30001E469B1A61F100070C464FF0CC3101FB9A
:102A400003F10EFB0711A3FB0E731944052307F0D6
:102A50000108A8FB03389B180A2E03F130034FEA44
:102A6000570774F1000405F8013B00F1010047EA43
:102A7000C1734FEA5101CFD2DDE90C75DDE90E6873
:102A80000B9B424600930A23CDE9055CCDE9010783
:102A9000049603934B4651465846FEF761FE804626
:102AA0008AE419780F4664E71027BC46B3E623F0A2
:102AB000100C45E71C064CBF12881268C0E60A4697
:102AC000191E01DB13469CE75242134661EB41019C
:102AD00097E713465146187842464B46D847B046CA
:102AE00048E613F0200F14BF4120612012ACA64627
:102AF0000B940A93A0F10A040C9502E0202912D04D
:102B00002A46B2FBFCF50CFB1520C3B2092803F1E1
:102B100030008ABF1B19C3B2DBB262450EF8013B1D
:102B200001F10101EAD20A9B0C9D94E60A9A073250
:102B300022F00702516852F8084B8E460A9254EA76
:102B4000010276D123F01003002872D00022114632
:102B500012AA0B92CDE905530B9B4246009300232A
:102B6000CDE903C60191029394E7A54298BF0134D1
:102B70007FF674AD4FF48063CDE90A7505EB08026A
:102B80001F460D46141B42464B465146202008F175
:102B90000108D847A045F6D13B460A9F2946387818
:102BA0000B9D6C1C00283FF470AD002B3FF475AEFC
:102BB000002353E5A542DFD801346EE61968CB0F38
:102BC000002900F0A88081EAE172A2EBE17212A96B
:102BD0000846DFF888E10B910A930C9501E0202F5D
:102BE0000FD01546AEFB0213DB0803EB8301A2EB0B
:102BF00041013031092D1A4607F1010700F8011B88
:102C0000EDD80A9B0C9DCDE9055CCDE901730496D6
:102C1000D5E6692823F0100C40F08C8013F4806214
:102C20003FF48EAE88E6002A3FF4A8AE12AA0B92BB
:102C3000C0E613F0200F14BF41226122002012A928
:102C40000A3ACDE90E68CDE90C35CDF844B0064618
:102C50008846754693460B91CDF840C003E0202E80
:102C600017D004460D4629463A460023204600F078
:102C7000CFFCD2B2092A02F1300388BF02EB0B036A
:102C8000BC42DBB275F1000508F8013B06F1010614
:102C9000E5D23146DDE90C35DDE910CBDDF83C80CD
:102CA0000E9E57E70A99096851B923F0100338B10D
:102CB00012A90B91CDE90553CDE903C60192CFE5E9
:102CC00013F0200F14BF4120612012ACA6460B94D4
:102CD0000A93A0F10A040C9502E0202A12D029469A
:102CE000B1FBFCF50CFB1510C3B2092803F1300051
:102CF0008ABF1B19C3B2DBB261450EF8013B02F17A
:102D00000102EAD20A9B0C9DD4E7196881EAE177B7
:102D1000A7EBE1772DE6002A3FF459AF12AA0B92F8
:102D200071E713F480640DD013F0020412D004464E
:102D30004646ECE50A276346BC466CE512AB00202C
:102D40000B939DE613F002037FF4E0AD002D7FF4BA
:102D500013AF9AE4002D7FF40DAF96E4CDCCCCCC2C
:102D600070B594461E4605460C4684B04FF0FF32BF
:102D7000634602A900960348CDE90254FFF7FEFA24
:102D800004B070BD3D19001010B5094B84B01C682B
:102D90004CB1034600914FF0FF3203A90548A0470C
:102DA000012004B010BD00F063F9204604B010BD4E
:102DB000B40700203519001000BEFDE708B5FFF785
:102DC000FBFF00BF38B5064C064DFEF72BFAAC42B0
:102DD00004D254F8043B9847AC42FAD338BD00BF44
:102DE0006836001070360010036808461146184710
:102DF0002DE9F0411546427D07468846002A46D017
:102E0000002D1DDD0B780A2B23D0012D4FF0000C77
:102E100018D04646012416F8012F21460A2A04F14B
:102E2000010422D0A542F6D165450BDC08EB050371
:102E300013F8013CA3F10D03B3FA83F35B093B756F
:102E4000BDE8F0813B68A5EB0C0108EB0C0098474E
:102E5000ECE7037D002BD8D1036802210F48984787
:102E6000012DE3D04FF0010CD3E716F8013C0D2BF8
:102E7000D8D08C4508EB0C00A1EB0C0101DA3B68C3
:102E80009847022105483B689847A446CAE7294667
:102E900040463B68BDE8F041184700BFA03800102D
:102EA0000B682DE9F041802B0D46064605D05A1CD3
:102EB0002B442A601E71BDE8F0810F4B1C68A4B141
:102EC0000E4F01F1040801E0246974B12368002B5E
:102ED000FAD03B680BB1A342F6D1204641462A689E
:102EE000FFF786FF2469002CF0D1002301222B4438
:102EF0002A601E71BDE8F081AC070020B0070020F9
:102F00002DE9F04782B00D4691461C460646FEF775
:102F100069F84FF0FF3C6FF000472E4A821841F1EC
:102F20000003944577EB03013CBF62463B462A48C9
:102F300000F076FB6B1C804640D00CB3274F284B2B
:102F40001C68B4B1B9F1000F1CD1DFF89C9001E00E
:102F5000246974B12368002BFAD0D9F800300BB182
:102F60009C42F5D120462A463146B8472469002CB8
:102F7000F0D1B8F1000F26D1284602B0BDE8F087A5
:102F8000184FDCE74FF00A0ADFF85C9002E0246992
:102F9000002CEED02368002BF9D0D9F800300BB10B
:102FA000A342F4D12A4631462046B84701222046A2
:102FB0000DF107018DF807A0B847E8E7304600F0AB
:102FC000F5FA0546B9E7044800F026FB284602B0AA
:102FD000BDE8F08740420F00C4050020F12D00102D
:102FE000AC070020E92D0010B0070020F0B583B039
:102FF00006468DF80700FDF7F5FF4FF0FF356FF03F
:103000000044174A821841F10003954274EB030112
:103010003CBF23462A46134800F002FB124B0746EA
:103020001C689CB1114D01E024697CB12368002B20
:10303000FAD02B680BB19C42F6D1204601220DF14B
:103040000701FFF7D5FE2469002CEFD117B93046F0
:1030500003B0F0BD034800F0DFFA304603B0F0BD26
:1030600040420F00C4050020AC070020B00700203C
:1030700038B5044600F09AFA012305461A46204660
:103080002946FFF73DFF084B1C682CB163682BB144
:1030900098472469002CF9D1284638BD2469002CB2
:1030A000F4D1284638BD00BFAC0700202DE9F0411F
:1030B000A2B004460D46FDF795FF4FF0FF376FF0C5
:1030C0000046264ADFF8A480821841F100039742A7
:1030D00076EB03013CBF3A463346214800F0A0FAA4
:1030E00000272B462246064601A91E480197FFF7F6
:1030F00037FE019B0546D8F80040C3B1002C2BD009
:10310000194F01E0246974B12368002BFAD03B68A1
:103110000BB1A342F6D12046019A02A9FFF768FE3F
:103120002469002CF0D10023D8F8004001932CB181
:10313000636843B198472469002CF9D12EB9284619
:1031400022B0BDE8F0812469F1E7054800F064FA97
:10315000284622B0BDE8F0810194EFE740420F001D
:10316000C4050020A12E0010B0070020AC070020ED
:103170000FB400B583B004A951F8040B0191FFF717
:1031800095FF03B05DF804EB04B0704700B545F25D
:1031900047308BB0FEF702F801220346092101A84F
:1031A0009847DDE90332044912BA1BBAC1E900238A
:1031B0000BB05DF804FB00BFF00700202DE9F041E3
:1031C000D0F868419DF81860121B1F2A38D84EF2BB
:1031D0009F044EF280054FF4003801EB410C002EA5
:1031E00018BF254600EBCC0404F5435400EBCC0C8F
:1031F000052BDCF8DC704FEA410EDCF8CC60C4F83B
:103200000C800CD95401053B44F0A0540532052B29
:10321000CCF8DC4002F01F02CCF8D850F2D8714450
:1032200000EBC1010020520142EA8363C1F8DC30A7
:10323000C1F8D850C1F8DC70C1F8CC60BDE8F081AD
:103240006FF00400FAE700BFF0B5012504688D4077
:1032500024EA05040460B3B3D3E901561F68DC68AF
:1032600001EB410300EBC303C3F8C8704FEA410C04
:10327000C3F8D060C3F8CC50C3F8DC400CEB0103BA
:103280004FF0013500EBC30C4FF0004600EBC30ECE
:1032900001230EF5865E0C1D01F108078D40CEF866
:1032A000106003FA04F4CEF8106002F01F0285608B
:1032B000BB4000F5005004600EF1100E03600020CA
:1032C000CCF8D820F0BD4FF480374FF440264FF4AF
:1032D000F83501EB410400EBC404C4F8C8704FEAB0
:1032E000410CC4F8D060C4F8CC50C4F8DC30C5E759
:1032F0002DE9F04F81460E46934687B0534D544F0B
:10330000DFF8588102932C0DA4F20254A40035601A
:10331000224600214F480097E31CFDF79DF9A0428B
:1033200003DB001B44B2002C09DAA5F580154545E6
:10333000E9D100231846336007B0BDE8F08FFDF7F0
:1033400043F9012199F804A0D6F800C001FA0AF166
:10335000DCF868314B1E99F9052003930CF12F43DB
:103360003D4903F560031B0D002A51F823E0059346
:103370000490CAF120034FDB93423FDB039B934051
:1033800013EA0E0F3AD1DCF86831104699F807209D
:103390008BB3D30731D4039A82401EEA020F2CD19B
:1033A00059465346E346DDF808A08C46D9F800504C
:1033B00083B1064605EB430335F8021B06F11207FD
:1033C000B1F5005F38BF09189D424BF8271006F190
:1033D0000106F1D1204B0599CCF800404EEA0202DB
:1033E000CAF80000049843F82120FDF7FFF80120F7
:1033F00007B0BDE8F08F5107CDD50498FDF7F6F87A
:103400003168144801F12F4101F56001090D04EB09
:103410008101FDF761F988E7002BEEDB039901E0FC
:103420005A1CEAD001FA03F212EA0E0F184603F111
:10343000FF33F5D1DCF8682199F80730039112B910
:103440005B07A8D5D9E7DA07A5D5D6E70000405035
:10345000C0370010800700207007002000001050C7
:1034600010B5002484B0CDE901440094FFF740FF7B
:1034700004B010BD4FF0010C70B50C461646017932
:1034800004F12F440CFA01F5013D9D4004F5600460
:10349000FDF79AF8084A240D52F8243023EA050370
:1034A00042F82430FDF7A2F806EB84010348BDE89A
:1034B0007040FDF711B900BF7007002080070020A1
:1034C000844641EA000313F0030349D1403A23D371
:1034D0000B6803604B6843608B688360CB68C36094
:1034E0000B6903614B6943618B698361CB69C3617C
:1034F0000B6A03624B6A43628B6A8362CB6AC36264
:103500000B6B03634B6B43638B6B8363CB6BC3634B
:1035100040304031403ADBD230320BD30B6803608D
:103520004B6843608B688360CB68C3601030103198
:10353000103AF3D20C3205D351F8043B40F8043B67
:10354000043AF9D2043208D0D2071CBF11F8013B6B
:1035500000F8013B01D30B8803806046704700BF31
:10356000082A13D38B07B1D010F00303AED0C3F1F8
:103570000403D21ADB071CBF11F8013B00F8013B22
:10358000A4D331F8023B20F8023B9FE7043AD9D399
:10359000013A11F8013B00F8013BF9D20B780370B6
:1035A0004B7843708B7883706046704720F003013E
:1035B00010F00300C0F1000051F8043B00F1040CCE
:1035C0004FEACC0C6FF000021CBF22FA0CF213433E
:1035D0004FF0010C4CEA0C2C4CEA0C4CA3EB0C0207
:1035E00022EA030212EACC1204BF51F8043B043071
:1035F000F4D0C2F1000102EA0102B2FA82F2C2F191
:103600001F0200EBD2007047F8B500BF00000000B9
:103610005FF800F0210200205FF800F0E5010020D3
:103620005FF800F07D010020D1120010451200105B
:10363000791200101D130010B1120010C9110010F2
:10364000F9120010B511001041080010FD12001011
:10365000B90B001015120010E512001095120010A1
:103660004107001069070010190200108D31001089
:103670005374617465206D616368696E657320635E
:103680006F6E6669677572C3A97300000000000061
:103690004C6573206D6F746575727320746F7572ED
:1036A0006E656E742E2045666665637475616E7412
:1036B000206465732063616C63756C732E2E2E001D
:1036C00043616C63756C2025642F31303020746544
:1036D000726D696EC3A90A0043616C63756C7320D7
:1036E0007465726D696EC3A9732C20656E20617458
:1036F00074656E7465206465206C612066696E2057
:1037000064657320696D70756C73696F6E732E2EAE
:103710002E000000736F7274696520626F75636CB0
:10372000650000000A2A2A2A2050414E4943202AD7
:103730002A2A0A000A0000004861726477617265F3
:1037400020616C61726D20256420616C726561641A
:103750007920636C61696D65640000004861726482
:10376000206173736572740052656C6561736500E6
:10377000626F6F74325F773235713038300000001D
:10378000322E312E310000007069636F320000006C
:103790007371756172657761766500004A756C209A
:1037A0003231203230323500666E692B0000000065
:1037B000666E69006E616E00666E692D0000000025
:1037C0004E6F2050494F207374617465206D6163A2
:1037D00068696E65732061726520617661696C61EC
:1037E000626C6500EC37001008FF010081E0A080EA
:1037F00027A0270001E900E9430007000600525016
:10380000D3F075426837001006005250E182887F7D
:103810007037001006005250ABB360538037001071
:1038200006005250BBFF3CB68837001006005250CD
:10383000861C030290370010060052505422A29DAD
:103840009C37001005005250DE65F468983D00106A
:10385000000000000000F03F0000000000002440D5
:1038600000000000000059400000000000408F40B0
:10387000000000000088C34000000000006AF8401B
:103880000000000080842E4100000000D01263413F
:103890000000000084D797410000000065CDCD41B5
:0438A0000D0A00000D
:0838A4001CFCFF7F0100000085
:1038AC00FC370010083800101438001020380010B5
:0C38BC002C380010383800104438001080
:1038C8004FF050412DE9F0410027044616461D46A9
:1038D800D1F8008008E0C1E88F7F8CF3108830466B
:1038E800294600F035FAE8B92168EFF3108C72B672
:1038F800D1E8CF2F0123002AFAD1C1E8423F002A9C
:10390800F6D1BFF35F8F94F904302168002BE2DA17
:10391800002384F80480C1E88F3F8CF310880120CD
:10392800BDE8F0810020BDE8F08100BF30B5046833
:10393800EFF3108C72B6D4E8CFEF0125BEF1000F7B
:10394800F9D1C4E84E5FBEF1000FF4D1BFF35F8F29
:1039580090F904400568002C10DB0021C5E88F1F92
:103968008CF310884FF0504595F90050A54201D1CD
:10397800084630BDBDE83040FFF7A2BF4FF05042C7
:10398800126800230271C5E88F3F8CF3108801206C
:1039980030BD00BF0368EFF3108272B6D3E8CFCF13
:1039A8000121BCF1000FF9D1C3E84C1FBCF1000F95
:1039B800F4D1BFF35F8F4FF0FF0C0023016880F84C
:1039C80004C0C1E88F3F82F3108840BF704700BF32
:1039D80053B94AB9002908BF00281CBF4FF0FF316E
:1039E8004FF0FF3000F0B2B9ADF1080C6DE904CE2C
:1039F80000F006F8DDF804E0DDE9022304B07047C2
:103A08002DE9F04F8C46099E04460F46002B48D1FD
:103A18008A4215465ED9B2FA82F33BB1C3F120025D
:103A28009F409D409C4020FA02F217434FEA154EF2
:103A38001FFA85FC220CB7FBFEF10EFB117701FB88
:103A48000CF042EA0742904207D9AA1801F1FF3761
:103A580002D2904200F258813946121AA4B2B2FB3F
:103A6800FEF00EFB102200FB0CFC44EA0244A445C5
:103A78000BD92C1900F1FF322CBF01270027A445D0
:103A880002D9002F00F04381104640EA0140A4EB20
:103A98000C0400211EB1DC400023C6E90043BDE848
:103AA800F08F8B4206D90EB1C6E900010021084605
:103AB800BDE8F08FB3FA83F1002951D16345C0F016
:103AC8001681824240F213810846002EE7D0C6E9EB
:103AD8000047E4E7002A00F0AF80B2FA82F3002B37
:103AE80040F0C2808A1A4FEA154EAFB20121200C6D
:103AF800B2FBFEFC0EFB1C2240EA024207FB0CF064
:103B080090420ED9AA180CF1FF382CBF4FF00109CA
:103B18004FF00009904203D9B9F1000F00F0F0808E
:103B2800C446121AA4B2B2FBFEF00EFB102200FB30
:103B380007F744EA0244A7420ED92C1900F1FF32D4
:103B48002CBF4FF0010E4FF0000EA74203D9BEF173
:103B5800000F00F0D2801046E41B40EA0C4099E7C1
:103B6800C1F120058B400CFA01F400FA01F922FAA0
:103B780005F72CFA05FC8A401F4320FA05F3380C98
:103B880023431FFA87FE1C0CBCFBF0F800FB18CC83
:103B980044EA0C4408FB0EFCA4450ED93C1908F174
:103BA800FF3A2CBF4FF0010B4FF0000BA44503D98F
:103BB800BBF1000F00F0B880D046A4EB0C041FFA4C
:103BC80083FCB4FBF0F300FB134403FB0EFE4CEA4A
:103BD8000444A6450ED93C1903F1FF302CBF4FF021
:103BE800010C4FF0000CA64503D9BCF1000F00F002
:103BF8009F80034643EA0840A4EB0E04A0FB02ECB6
:103C080064457346E04602D307D1F14505D2BEEBC1
:103C180002036CEB070C0138E0465EB1B9EB030216
:103C280064EB080404FA05F522FA01F3CC401D43BD
:103C3800C6E90054002132E742082F464B08AC463B
:103C480042EAC172AE46C407110C92B241EA03417E
:103C580042EA0142B1FBF5F1B3FBF5F01F23A2EBF9
:103C68000C0241EA004142E79D40C3F1200299401D
:103C78009C402CFA02FC4FEA154E20FA02F2AFB231
:103C8800BCFBFEF80A430EFB18CC110C41EA0C41B0
:103C980008FB07FC8C4550D9691808F1FF302CBF88
:103CA8004FF001094FF000098C4502D9B9F1000F16
:103CB80030D0A1EB0C01B1FBFEF808FB07FC0EFBB2
:103CC800181192B242EA0142624534D2AA1808F1A8
:103CD800FF312CBF4FF001094FF000096245BED2F9
:103CE800B9F1000FBBD1A8F102012A44B7E7841A41
:103CF8006CEB030201201746E7E62C4402382BE759
:103D0800ACF1020C2A440CE702392A44A5E62C44FB
:103D18000238BAE6A5EB0C0CA8F102006144B1FB2D
:103D2800FEF808FB07FCCAE7A8F102083C4444E790
:103D3800023B3C445EE7414691E7A1EB0C0140465B
:103D4800B1FBFEF808FB07FCB9E700BF704700BFEE
:103D58005FF800F0DD0E0010100000000000000009
:103D6800000000000000000000000000000000004B
:0C3D7800D005002000000000000000004A
:103D8400D3DEFFFFFE010000FF010000B4C3FFFF0C
:043D9400793512ABC0
:040000051000014D99
:00000001FF
