:020000041000EA
:10000000002008205D0100101301001015010010F0
:100010001101001011010010110100101101001058
:100020001101001011010010110100101701001042
:100030001101001011010010190100101B01001026
:100040001D0100101D0100101D0100101D010010F8
:100050001D0100101D0100101D0100101D010010E8
:100060001D0100101D0100101D0100101D010010D8
:100070001D0100101D0100101D0100101D010010C8
:100080001D0100101D0100101D0100101D010010B8
:100090001D0100101D0100101D0100101D010010A8
:1000A0001D0100101D0100101D0100101D01001098
:1000B0001D0100101D0100101D0100101D01001088
:1000C0001D0100101D0100101D0100101D01001078
:1000D0001D0100101D0100101D0100101D01001068
:1000E0001D0100101D0100101D0100101D01001058
:1000F0001D0100101D0100101D0100101D01001048
:100100001D0100101D0100101D0100101D01001037
:1001100000BE00BE00BE00BE00BE00BEEFF3058004
:10012000103800BEF2EB88714C4C00106C4C001083
:10013000A801001090A31AE7D3DEFFFF42012110AF
:10014000FF010000C8580000793512AB4FF00000E5
:100150002049086006C881F3088810474FF05040D6
:10016000006810B14FF00000F2E70FA40ECC002998
:1001700002D000F015F8F9E71749184A002000E00E
:1001800001C19142FCD1002080F30A8814498847BC
:10019000144988471449884700BEFDE701C901C2D8
:1001A0009A42FBD3704700BF6C4C00101001002036
:1001B000A40E0020005A00100000082000000820B3
:1001C000005A001000100820001008200000000055
:1001D0007047000008ED00E0A40E0020E01A0020A7
:1001E00035190010590200102D190010F8B500BF84
:1001F000064B0749C91A891048BF0131491003D07D
:10020000044B0BB101481847704700BFA40E0020F3
:10021000A40E00200000000008B5054B1BB10549E5
:100220000548AFF30080BDE80840FFF7E1BF00BF1D
:1002300000000000701A0020584800100121034BF4
:10024000034A196313780B43137070470000205062
:10025000DC1A0020000000002DE9F04F2DED048B8A
:100260009BB001F05FFC4FF47A7000F0D1FF88483A
:1002700001F09CFC4FF4FA6000F0CAFF0023DFF8A5
:1002800028920E201C4689F8003000F02DF90E232C
:100290004FF0010242EC443044EC40300AAF0DF123
:1002A000380B0DF1480AD0465D463C460F269FEDBF
:1002B000749B9FED758BCDE903BA059743462A469B
:1002C0002146744804F05AF9002840F0848001F077
:1002D0001FFA0136132E04F1040405F1040508F198
:1002E0000408EBD1DDE903BA059F5E463D464FF0B9
:1002F000010E4FF4347C07F1100456F8040B55F846
:10030000041B00F110020EFA02F24B681342FCD1FA
:100310000430AC4241F820C0EFD15F4801F046FC08
:1003200001220E9B0F9902FA03F302FA01F10B432B
:1003300010994FF47A7002FA01F10B4311998A4037
:1003400013431A0202F4706203F00F0313430A9A74
:1003500043F0A06302F50052136000F059FF99F8D2
:1003600000300F2B06D0642000F052FF99F80030C7
:100370000F2BF8D10126494801F018FC0E9B0F9A6B
:1003800006FA03F306FA02F21343109A0A9906FAE0
:1003900002F21343119A06FA02F213430A6822EAA0
:1003A000030343F000730B605BF8042B57F8041B46
:1003B000D0B201F5455506FA00F05AF8043B28631F
:1003C000344804F0E5F8BC42EED100201BB0BDEC8F
:1003D000048BBDE8F08F4FF0010A23680A2003F177
:1003E0002F4303F560031B0D991DC9B200F05EF8A1
:1003F000CDF800A00A2253462968206803F06CFF5C
:10040000002309934FF440238DED069BD8F800B0EC
:1004100008930BF1080E0DF1580C06AF0BF1030316
:100420004FEA0E3E4EEAC31E97E80F008CE80F001D
:10043000CDF85CE09CE80F0087E80F003B465A4689
:10044000296820688DED088B03F08CFF2B682268EB
:1004500003EB4303124802EBC302C2F8C800114980
:10046000304600F0BFF95146304600F079F9226875
:100470002B7802F505520AFA03F3136329E700BF4C
:100480000000010000F0010000000C4040010004E9
:1004900058480010184A0010704800108C4800108E
:1004A00000003E493D020010DC1A002010B44FF459
:1004B00080740C4B53F8202003EB8003C00082F0C3
:1004C000400200F1804003F5805C02F0C00200F5BC
:1004D000203003F54053CCF8002041601C605DF8EB
:1004E000044B70470480034030B44FF0000343ECEA
:1004F000440043EC400005254FF480740B4BC200D0
:1005000053F8201003EB800081F0400102F180439A
:1005100003F5203301F0C00200F5805100F5405092
:100520000A605D60046030BC704700BF0480034017
:100530000FB400B583B0049C074801F037FB3CB111
:1005400005A92046019101F0D7F9044801F02EFBDE
:10055000012001F0E9F900BF9C480010AC480010F0
:10056000EFF3108072B6064BD3E8CF1F01220029AB
:10057000FAD1C3E8412F0029F6D1BFF35F8F70474E
:10058000DF1100200023034AC2E88F3F80F3108868
:10059000704700BFDF11002070B58646EFF310856D
:1005A00072B6124CD4E8CF6F0120002EFAD1C4E805
:1005B000460F002EF6D1BFF35F8F4FF0010CC80835
:1005C00001F007030CFA03F31EF800C01CEA03064F
:1005D00008D14CEA030C0EF800C0C4E88F6F85F315
:1005E000108870BD1046FFF7A3FF00BFDF11002089
:1005F000F8B5EFF3108772B61C4ED6E8CF5F012432
:10060000002DFAD1C6E8454F002DF6D1BFF35F8F1C
:100610009A421BD8012502E00132934222D3D4082A
:1006200010F804E002F0070C05FA0CFC1EEA0C0FAF
:10063000F2D14EEA0C0E00F804E010460023C6E8A2
:100640008F3F87F31088984207DBF8BD0023C6E888
:100650008F3F87F310884FF0FF300029F5D00698C0
:10066000FFF766FF4FF0FF30E8E700BFDF11002023
:1006700000B5EFF3108E72B6104BD3E8CFCF012246
:10068000BCF1000FF9D1C3E84C2FBCF1000FF4D13D
:10069000BFF35F8F01224FEAD10C01F0070102FA8C
:1006A00001F110F80C2022EA010200F80C200022CF
:1006B000C3E88F2F8EF310885DF804FBDF11002054
:1006C000044A1078431CDBB2182B28BF1023137088
:1006D000704700BF000E002010B5054C82B00146E7
:1006E0001F23182200940348FFF782FF02B010BDB9
:1006F000B0480010FC1500204FF0E022936843F052
:1007000000539360704700BF0021044B03F12002A7
:10071000C3E88F1F01339342FAD17047D4110020F0
:100720004FF0E0234FF08032C3F80024C3F80424D4
:10073000C3F80824C3F80C24C3F81024C3F8142405
:10074000C3F81824C3F81C24C3F82024C3F82424B5
:10075000C3F82824C3F82C24C3F83024704700BF02
:10076000012300F01F029340400941B1800000F1D5
:10077000604000F56140C0F8803103607047024A74
:10078000203042F82030704700E100E00123064AA3
:10079000410952F8212000F01F0003FA00F0104038
:1007A000003818BF0120704700E100E00122430932
:1007B000034900F01F008240403341F82320704776
:1007C00000E100E0054A10309268054B52F8200025
:1007D000C01A2F288CBF00200120704700ED00E0D8
:1007E000040E0020F8B50D46EFF3108772B6124ED6
:1007F000D6E8CF2F0123002AFAD1C6E8423F002ACB
:10080000F6D1BFF35F8F0D4B00F110049B680C4ACB
:1008100053F82430934203D0994201D000F078FF7E
:10082000064B9B6843F82450BFF35F8F0023C6E854
:100830008F3F87F31088F8BDDD11002000ED00E048
:100840001D0100102DE9F04F81468B46164683B0FE
:10085000EFF3108372B6DFF8D0A10093DAE8CF1F70
:1008600001230029FAD1CAE8413F0029F6D1BFF39C
:100870005F8F664B93F90040002CC0F2A080644D5E
:1008800004EB440705EB870898F8061009F11009F6
:100890001970604BBF009B6853F829006300411B2F
:1008A0002F292FD95C49884240F0A4801C445B4B1F
:1008B00002372F44043BDB1BC3F34A036FEAC343F5
:1008C0004FF421416FEAD34325F8241005EB84044B
:1008D00063804BF60153A380FF2348F00100E671CB
:1008E000C4F808B0A3714B4B9B6843F82900BFF3D1
:1008F0005F8F0023CAE88F3F009B83F3108803B00B
:10090000BDE8F08F20F0010E9EF80710B1422ED8FE
:100910004FF42143EB53414BB91C2944043B0437AA
:100920005B1A2F44AEF10401C91BC1F34A043C49D0
:10093000C3F34A030B432143A8F804103949A8F82C
:1009400002304AF6AA2073465B1B5B415843000DF8
:1009500088F8076088F80600C8F808B048F0010079
:10096000CEF80010BFE7D179B1422ED996469EF954
:1009700006C00CEB4C02BCF1000F05EB8202F2DA70
:100980004BF601510EF10402A8F10407BF1AC7F398
:100990004A076FEAC7476FEAD7478EF8064003EB6E
:1009A0000408204C05EB8803AEF8047045F8284095
:1009B000998083F806C0DE71C3F808B093E700F0B1
:1009C000A7FE124B93F9004059E7724632F8041F14
:1009D000490514D44915023102EB410101916FF030
:1009E0000701C91B019F491B3944C1F34A0141F466
:1009F0006041C9E7019300F08BFE019B56E701F5CA
:100A0000FF1101F5FF511F31E4E700BFD81A0020A4
:100A1000040E002000ED00E01D010010340E002047
:100A200000E0FFFF01488047DD110020F0B5EFF343
:100A30000585EDB2EFF3108C72B62649D1E8CF2FC1
:100A40000123002AFAD1C1E8423F002AF6D1BFF3C0
:100A50005F8F214E40F0010EB4684AF6AA2354F885
:100A600025701E4A0446A41A644163431B0D774552
:100A70005BB21BD092F906409C421CD092F9124006
:100A80009C4223D092F91E409C4221D092F92A40E8
:100A90009C4208BF03240FD0114A0024157813701C
:100AA0008571C1E88F4F8CF31088F0BDB2680D4C92
:100AB00042F82540F0E7002404EB440402EB8402F2
:100AC000FF2494714BF601549480E5E70124F3E789
:100AD0000224F1E7DD11002000ED00E0040E00200B
:100AE000D81A00201D01001010B5074C82B0014635
:100AF0000523002200940548FFF77AFD0028A8BFCF
:100B0000C0F1330002B010BDCC480010DD1A002047
:100B1000014B0B4403607047D411002070B5104C9A
:100B2000104DAC420ED2FF26236863B1FFF7C8FD1B
:100B300001462046FFF7ECFFA680BFF35F8F083425
:100B4000AC42F1D370BDFFF7BBFD01462046FFF775
:100B5000DFFF2671BFF35F8F0834AC42E4D370BD72
:100B60009C0E0020A40E002010B50446FFF7A8FD3F
:100B700001462046FFF7CCFFFF232371BFF35F8FB1
:100B800010BD00BF10B504460120FFF7A5FD034BC3
:100B900003442360BFF35F8F10BD00BFD41100205A
:100BA000024B0B440360BFF35F8F7047D4110020EA
:100BB0000D4B1A68EFF3108172B6D2E8CFCF012047
:100BC000BCF1000FF9D1C2E84C0FBCF1000FF4D119
:100BD000BFF35F8F00221B68C3E88F2F81F310885B
:100BE00040BF002000217047B81A0020000000001C
:100BF0002DE9F04F2DED028B85B0EFF30583DBB2CD
:100C0000103B9A0818BF01224FF0010103F0030BBB
:100C100018BFAF4DAF4B08BFAF4D0BEB820253F87F
:100C2000226001FA0BF205F541539FEDA78B01926B
:100C30005A602FE0B3881C0440F19380B379002BF5
:100C400040F0DD80B6F90820002AC0F21E817369E9
:100C500002EB420203EBC203D3E90247B7F1FF3FC5
:100C600008BFB4F1FF3F0ED005EB8B01AB6A0A69F8
:100C7000D21AE31A934205D301232A6A03FA0BF32B
:100C8000134200D10C61284600F0ACFBA042B941F0
:100C9000C0F2FB80B6F90830019A002B0093EA639A
:100CA000C8DBD6F8148003EB4309284608EBC907D4
:100CB000D7E9024A00F096FBA04271EB0A01B9DBCA
:100CC000BAF1000FC0F2C380D7E90431834A9342DE
:100CD00000F0ED807A88B6F9080092B242EA00404E
:100CE000984702460B4652EA030100F0B080002B01
:100CF00080F2D180B4EB020E6AEB030A38F9393086
:100D0000C7E902EA002B95DB716903EB430201EBB3
:100D1000C202D2E90270BE457AEB000C4FEA4302F0
:100D200088DBB4462CF8083F06E003EB430001EBF8
:100D3000C0005A00D0E90270BE451A447AEB0000A8
:100D400001EBC20404DB31F93230A446002BECDAAB
:100D500028F83930009BACF80030B3881C043FF50C
:100D60006DAF3369EFF3108272B6D3E8CF0F012174
:100D70000028FAD1C3E8401F0028F6D1BFF35F8FE7
:100D80004FF6FF74B0880023316900B2B480C1E827
:100D90008F3F82F310889842FFF650AF0746A9466E
:100DA000746906F1080807EB470E04EBCE03D3E99C
:100DB0000250B6F90830C446002B13DBB246009748
:100DC00004E034F936309446002B09DB03EB43068C
:100DD00004EBC602D2E90271BD4270EB0101F0DA08
:100DE0005646009FACF8007034F93E7024F83E304F
:100DF000002FD8DAB3794D46002B3FF423AF002300
:100E0000B371B6F9083006F10808581C3DD01A46EF
:100E1000776903E08046591C3FF416AF03EB4301AA
:100E200007EBC100B0F802C01C461CF4004F9E4600
:100E300037F93130EED0944280ED028B05D0A8F81E
:100E40000030328927F8312034817246E3E738F8E0
:100E5000393033813369EFF3108272B6D3E8CF0FA4
:100E600001210028FAD1C3E8401F0028F6D1BFF3C2
:100E70005F8F7388316928F83930009B73800023B5
:100E8000C1E88F3F82F31088D4E640BF05B0BDECC7
:100E9000028BBDE8F08F2846CDE9022300F0A2FACC
:100EA000029A039B10EB020E43EB010A26E7084669
:100EB0000B69029198470028C9D00299D1E9002313
:100EC00011E700BFAFF30080FFFFFFFFFFFFFFFF51
:100ED00000800B40901A002000000B40F10B001026
:100EE0002DE9F84F364C25692DB1BDE8F84F0A21A0
:100EF0003448FFF70DBEDFF8E4800321404600F0E0
:100F00005FFA0326C4F80C80FFF7DAFB4FF0504C71
:100F10002D4B267003442361DCF800300F216370F1
:100F2000636961801D834FF00405A3F878504FF08A
:100F30000505A3F890504FF00605A3F8A8504FF010
:100F400007050E214FF6FF7208274FF00A0EA3F88F
:100F5000C0504FF001094FF00C0C4FF0020B4FF056
:100F6000090A0D204FF00B05A3F868111749A2805C
:100F7000A3F808E1A160A3F848B0A3F8F0A0A3F893
:100F80002051A3F838C1A3F85001A3F83090A3F87A
:100F90006060A3F8D8701A800D4B3046C8F82070F6
:100FA0000C49DC60FFF71EFC49463046FFF7D8FBD2
:100FB000094B0A211F640348BDE8F84FFFF7A8BD9D
:100FC0004C0E0020B81A0020D4110020FFFF1000A2
:100FD000901A0020F10B001000200B4000000B4085
:100FE000004870474C0E0020F8B59DF8205004468C
:100FF00017461E4635B900F0FDF9874266EB010140
:1010000000295CDB2169EFF3108372B6D1E8CF0FC2
:1010100001220028FAD1C1E8402F0028F6D1BFF301
:101020005F8FB4F90220656902EB4201002A4FEAA2
:10103000C10C206905EBC10139DB35F80CE0A4F8DF
:1010400002E04FF0000EC0E88FEF83F3108848886D
:10105000069B0130C0F30E00012838BF01200B6150
:10106000079B48804B61C1E9027640EA0240236950
:10107000EFF3108172B6D3E8CF7F0126002FFAD1AB
:10108000C3E8476F002FF6D1BFF35F8FA38825F821
:101090000C30A2802369C3E88FEF81F3108801220E
:1010A000E368217803F501538A405A60F8BD0022B5
:1010B000C0E88F2F83F310884FF0FF30F8BD28462B
:1010C000F8BD00BF0146F0B50069EFF3108772B6B6
:1010D000D0E8CF5F0124002DFAD1C0E8454F002DA4
:1010E000F6D1BFF35F8FB1F902E04C690EEB4E0C05
:1010F000BEF1000F4FEACC05086904EBCC0C3CDBD9
:10110000665B4E800026C0E88F6F87F31088BCF8BE
:101110000200CCE902230130C0F30E00012838BFE1
:101120000120059BACF80200CCF81030069B40EA89
:101130000E40CCF814300B69EFF3108272B6D3E88E
:10114000CFCF0127BCF1000FF9D1C3E84C7FBCF130
:10115000000FF4D1BFF35F8F8B886353A1F804E0D5
:101160000B69C3E88F6F82F310880122CB6809787E
:1011700003F501538A405A60F0BD0023C0E88F3F59
:1011800087F310884FF0FF30F0BD00BF0346408961
:10119000B0EB214F37DD58690A1402EB420210B55B
:1011A00000EBC2001C69EFF3108C72B6D4E8CFEFED
:1011B0000122BEF1000FF9D1C4E84E2FBEF1000F9D
:1011C000F4D1BFF35F8F428889B292B28A4207D0CE
:1011D00000221B69C3E88F2F8CF31088002010BDFC
:1011E00042F4004242800121002218699971C0E84E
:1011F0008F2F8CF310881C78DA68084602F50153AB
:10120000A140596010BD0020704700BF4078704772
:101210002DE9F04182B0064600F0ECF84FF47A7305
:1012200004464FF0FF306FF00042E6FB0341A0425E
:1012300072EB01033ABF044615460D46A61F45F161
:10124000FF37B44275EB07033CBF0026374600F07A
:10125000D1F8301A67EB0101012871F1000106DABB
:101260002046294602B0BDE8F04100F0CDB800F0BC
:10127000C1F8864267EB010100290ADB0021174B08
:101280003246009316483B460191FFF71BFF0130A1
:10129000E6D04FF0000C134A1349536A9F4204D81A
:1012A000906AB042DCD29F42DAD10B68EFF3108033
:1012B00072B6D3E8CF8F5FF0010EB8F1000FF8D10E
:1012C000C3E848EFB8F1000FF3D1BFF35F8F0B68AD
:1012D000C3E88FCF80F3108820BFDEE7B10B00108A
:1012E0004C0E002000000B40B81A00202DE9F043FE
:1012F00006460D4683B0EFF30584E4B23CB12D4BB6
:101300005A6AAA421CD2002003B0BDE8F0832A4FDB
:10131000D7F80C9097F80080484600F063F808F181
:10132000040859F828301B1A301A65EB010198425D
:1013300071F1000110DB20BF1E4B5A6AAA42E2D3B2
:1013400014BF012400249B6AB34234BF204644F0FA
:10135000010003B0BDE8F08300F04CF8864265EB75
:101360000101002914DB154B3846CDE90034324623
:101370002B46FFF7A7FE011E0ADD0E4B5A6AAA4252
:1013800016D39B6AB34211D30B48FFF7FFFEB6E7B3
:10139000084B5C6AAC42B6D3641B18BF01249B6A3D
:1013A000B34234BF204644F00100ADE7AA42EBD17E
:1013B00020BFE9E700000B404C0E0020B10B0010ED
:1013C00010B4054B054C064AA04214BF1846581CE1
:1013D0005DF8044BFFF7E0B80016002000800B40DA
:1013E000E84800100346416A0A46986A596A8A42E8
:1013F000FAD17047034B596A0A46986A596A914272
:10140000FAD1704700000B40074A536A9942FCD852
:10141000994207D1044B02E05A6A914202D19A6A7A
:101420009042F9D8704700BF00000B4000EB400C21
:101430004FEA8C0C0CF1804C0CF5803CF0B5164654
:10144000DCF80420051FB2F5803F38BF4FF480322E
:10145000EDB238BFCCF80420012D2AD94FF4006733
:10146000254C0CF54052176054F82020B2B9DCF836
:101470000020012D82EA461202F0E0020CF58056AF
:1014800032602AD94FF4006144F820304FF48033A1
:101490000CF500521160CCF80430F0BD6769B7FB61
:1014A000F2FE0EF1010E0EEB4E0EBEF1030EFCD25B
:1014B000DDE70129D2D103240CF540521460DCF899
:1014C0000820D207FBD5DCF800200B4C82EA46123C
:1014D00002F0E0020CF5805632600122DCF8005088
:1014E0004D4005F00305356002FA01F1DCF80820F3
:1014F0000A42FBD0C6E700BF08160020014B53F894
:10150000200070470816002070B4039D04682D0366
:1015100045EA03451B4B002CB3FBF1F3B2FBF3F69A
:101520001FDB194A194B904214BF4FF480424FF40D
:101530000042174C1A6003F580531A60A36832EA20
:101540000303FBD1212200F5405304330160866080
:101550001A600268002AFCDA0822C5601A6070BCB2
:101560007047036803F03F038B42DAD18368C3F30B
:101570000B03B342D5D1C36803F4EE23AB42D0D101
:10158000EDE700BF001BB7000080054000200240CF
:101590000000024030B44FF080441C4B1C60E0B1AE
:1015A0001B4CA3F54053DC611A4C40F00100444051
:1015B0001C62596298624FF080454FF0E061134B16
:1015C0001548164C1D60846019604AB930BC4FF054
:1015D0000042A3F580531A607047114BD861EAE7C7
:1015E0004FF47A7303FB02F2B2F1807F2ABF6FF0EF
:1015F0007F4313461A464FF080410A4C0848236047
:10160000094B426030BC1960704700BF00B00D400C
:10161000D3C007B02D3FF84F00A00140F3FFFF01FA
:1016200000800D40681A002000A00D40012300EB4F
:101630004000800000F1804000F5841041600360AC
:10164000704700BF002370B5DB8A04460D460022B8
:1016500042E800F2520254BF1021042144F2522009
:10166000984786462B462246F446BDE870400A213C
:101670004FF48170604700BF0023DB8A002242E8FC
:1016800000F2520201D4102118470421184700BF6C
:1016900008B503460846191E02DB1AB140F03000B7
:1016A000FFF7D0FF40F02000FAE700BF034AD2F86E
:1016B0002838002BFBD0BFF35F8F704700000E402F
:1016C0000021044B044ABFF35F8F43F8041B93428D
:1016D000F9D170470C080E402C080E4010B44FF49E
:1016E0008D704FF42A64064A064B07491460D06097
:1016F00019605368002BFCDA5DF8044B704700BF9B
:101700000080044000A0044000B0FA00704700BF11
:1017100008B50148FEF70CFF0C49001038B5054C20
:10172000054DAC4204D254F8043B9847AC42FAD37E
:1017300038BD00BF104800105048001010B40748D2
:10174000074C084B084A094904601A608B6832EA62
:101750000303FBD15DF8044B704700BF002002403B
:101760007F3BEFEF00300240F6FFF3030000024042
:10177000044BDB6CB3F5004F03D14FF48022024BD6
:10178000DA64704700001150002011504FF0E02241
:10179000044BD2F8881D0B43C2F8883D10EE30048C
:1017A000704700BF030330006FF06041044B054AEF
:1017B00019609368DB4333F06043FAD1704700BF90
:1017C000003002400000024010B545F25320FFF700
:1017D00053FFBDE8104003460420184710B545F2FA
:1017E0005320FFF749FFBDE810400346012018478A
:1017F000FEF78ABF10B5054B054C4FF488721846AA
:10180000A16802F039FFA06010BD00BF00000020F9
:1018100000ED00E0002370B52B4C82B0C4F884309A
:10182000FFF75CFF0122294BDA63636C012BFCD1CB
:101830000321264A244B11639C6B012CFCD1022608
:10184000052521460523224A22480096FFF75CFE23
:1018500021462B46204A21480095FFF755FE0022DD
:10186000042031461E4BFFF7E1FD214628460022A9
:101870001C4BFFF7DBFD0022082011461A4BFFF737
:10188000D5FD002209201146174BFFF7CFFD00229E
:1018900006201146134BFFF7C9FD0022114B07200C
:1018A0001146FFF7C3FD0420FFF728FE00240F4B6D
:1018B000A3FB0035AD0CE0B229460134FFF7B6FEBC
:1018C000062CF8D102B070BD00000140003001408C
:1018D000002F685900000540008C864700800540B5
:1018E000001BB70080D1F008006CDC0283DE1B43D4
:1018F00000B9704700F018B910B5094B84B01C68E6
:101900004CB1034600914FF0FF3203A90548A047B0
:10191000012004B010BD00F049F9204604B010BD0C
:10192000641A0020F118001000BEFDE708B5FFF7AB
:10193000FBFF00BF38B5064C064DFFF7EFFEAC428B
:1019400004D254F8043B9847AC42FAD338BD00BFE8
:1019500050480010584800100368084611461847C0
:101960002DE9F0411546427D07468846002A46D0BB
:10197000002D1DDD0B780A2B23D0012D4FF0000C1C
:1019800018D04646012416F8012F21460A2A04F1F0
:10199000010422D0A542F6D165450BDC08EB050316
:1019A00013F8013CA3F10D03B3FA83F35B093B7514
:1019B000BDE8F0813B68A5EB0C0108EB0C009847F3
:1019C000ECE7037D002BD8D1036802210F4898472C
:1019D000012DE3D04FF0010CD3E716F8013C0D2B9D
:1019E000D8D08C4508EB0C00A1EB0C0101DA3B6868
:1019F0009847022105483B689847A446CAE729460C
:101A000040463B68BDE8F041184700BF884A0010D7
:101A10002DE9F04782B00D4691461C460646FFF779
:101A2000E9FC4FF0FF3C6FF000472E4A821841F16D
:101A30000003944577EB03013CBF62463B462A48CE
:101A400002F0D6FE6B1C804640D00CB3274F284BCB
:101A50001C68B4B1B9F1000F1CD1DFF89C9001E013
:101A6000246974B12368002BFAD0D9F800300BB187
:101A70009C42F5D120462A463146B8472469002CBD
:101A8000F0D1B8F1000F26D1284602B0BDE8F087AA
:101A9000184FDCE74FF00A0ADFF85C9002E0246997
:101AA000002CEED02368002BF9D0D9F800300BB110
:101AB000A342F4D12A4631462046B84701222046A7
:101AC0000DF107018DF807A0B847E8E7304602F0AE
:101AD00049FE0546B9E7044802F07EFE284602B0FA
:101AE000BDE8F08740420F009C0E002061190010F5
:101AF000581600205919001060160020084A136873
:101B000023B90AE003F110021B6933B18342F9D112
:101B100029B9186910601961704701B110607047E8
:101B20005816002000F06EBAF0B583B006468DF866
:101B30000700FFF75FFC4FF0FF356FF00044174AD6
:101B4000821841F10003954274EB03013CBF234628
:101B50002A46134802F04CFE124B07461C689CB103
:101B6000114D01E024697CB12368002BFAD02B6869
:101B70000BB19C42F6D1204601220DF10701FFF77F
:101B8000EFFE2469002CEFD117B9304603B0F0BD49
:101B9000034802F021FE304603B0F0BD40420F0082
:101BA0009C0E0020581600206016002038B5044610
:101BB00002F0D8FD012305461A4620462946FFF7C4
:101BC00027FF084B1C682CB163682BB19847246928
:101BD000002CF9D1284638BD2469002CF4D12846C0
:101BE00038BD00BF58160020704700BF0022014BCF
:101BF0001A707047D91A00204B79FF2B0BD18879C6
:101C000048B9CB79012B07D1082A05D9034B8A782B
:101C100009201A7070470020704700BFD91A0020B1
:101C200001207047012901D00120704708B5104BF1
:101C300091881B78994201D0002008BD5378012B70
:101C400008D0022BF8D1002164220846FFF7A2FC3D
:101C5000012008BD5188CB0548BF480AC1F3402286
:101C600058BF4FF0FF3001F07F01FFF711FD00BFBB
:101C7000D91A002000487047544B0010012907D1A1
:101C80005378012B02D19388072B03D00020704793
:101C9000012070471146A623014A01F039BA00BF5E
:101CA000AC4A00100346012201481A70704700BF79
:101CB0008C4A001008B50B68B3F5966F00D008BDCC
:101CC00000224FF0FF301146FFF7E2FC024A034BBF
:101CD00010601960704700BFF4150020F81500204F
:101CE000184B70B51A68002A28D0EFF3108172B62D
:101CF000D2E8CF4F0120002CFAD1C2E8440F002CCB
:101D0000F6D1BFF35F8F00220F4C18685960227024
:101D1000C0E88F2F81F31088002400250B4E307807
:101D2000FEF734FD20B9002400252046294670BD69
:101D30003078FEF73BFD2046294670BD4FF47A749B
:101D40000025EBE7881A0020DB1A0020DA1A0020B1
:101D5000014B1878FEF72ABDDA1A002038B5044680
:101D600000200D4601F004FBA8B3002001F016FB93
:101D700088B3FFF73FFB4FF0FF3E6FF0004C174A70
:101D8000821841F1000396457CEB03013CBF72468B
:101D90006346134802F02CFDE8B1002001F0E8FA98
:101DA00058B900214FF0FF3000F00AFD6FF0020437
:101DB0000B4802F011FD204638BD002001F0EEFA7C
:101DC0000028EED021462A46002001F0F1FA044610
:101DD0000028EDD1EAE76FF00204ECE740420F0083
:101DE000BC1A002008B5FFF705FB4FF0FF3E6FF06F
:101DF000004C0F4A821841F1000396457CEB030129
:101E00003CBF724663460B4802F0F2FC70B14FF0E3
:101E1000FF30002100F0D4FC002001F011FB00286D
:101E2000F5D1BDE80840034802F0D6BC08BD00BFAC
:101E300040420F00BC1A00202DE9F84380460F46AF
:101E4000FFF7D8FA4FF0FF356FF00044334A82189D
:101E500041F10003954274EB03013CBF2A4623463F
:101E60002F4802F0C5FC08B9BDE8F883002001F056
:101E70007FFA002847D0002F40DD0025DFF8A8902A
:101E8000284E13E02246002001F020FB00210446EA
:101E90004FF0FF3000F094FC002001F0D1FAFFF782
:101EA000A9FAC9E900012544AF4227DD002001F06D
:101EB0002DFB7C1B8442A8BF044608EB0501002CC7
:101EC000E0D121464FF0FF3000F07AFC204601F0CF
:101ED000B7FA204601F04CFA80B1204601F016FB1B
:101EE0000028E1D1FFF786FAD9F80030D9F80420AC
:101EF0009B1942F1000283428A41D5D20848BDE8CD
:101F0000F84302F069BC00200021074BC3E900013F
:101F1000BDE8F843024802F05FBC00BF40420F003A
:101F2000BC1A002020A107002810002030B5002195
:101F300085B02E4802F064FCF0B92D4B1A68CAB186
:101F4000EFF3108172B6D2E8CF5F0124002DFAD1F1
:101F5000C2E8454F002DF6D1BFF35F8F254C1D68B9
:101F600022785960D3B201222270C5E88F0F81F325
:101F70001088CBB105B030BD00214FF0FF3000F02C
:101F80001FFC002001F00AFA0446184802F024FC65
:101F9000002CEFD0184B1B68002BEBD0174A1068B1
:101FA00005B0BDE830401847FFF71AF80446FFF7C0
:101FB00021FA4FF0FF3C6FF0004510F57A7241F1C5
:101FC0000003944575EB030138BF2B464FF0000129
:101FD0004FF0010520460A4C38BF6246CDE9011595
:101FE0000094FFF701F805B030BD00BFBC1A002017
:101FF000881A0020DB1A0020F4150020F8150020B4
:10200000E11C00104FF0504330B585B01C68FEF75E
:10201000E7FFFFF7FBF8A04202D0002005B030BD7B
:1020200000212A4B08461B7801F038FD2848036838
:10203000002B47D00120FEF757FD0346254C2649CB
:10204000C0B22370FEF7CEFB20780121FEF788FB9B
:102050000E20FEF7B7FB40BB204B0125C3E9000073
:10206000FEF7BEFF0446FFF7C5F94FF0FF3E6FF0E5
:10207000004C10F57A7241F1000396457CEB0301A8
:102080004FF000012046164C3CBF72466346CDE936
:1020900001150094FEF7A8FF0028BEDB01211148BE
:1020A000FFF72CFD012005B030BD0120FEF714FB29
:1020B00001460A48FEF774FD00220E200A49FEF789
:1020C000C1FBEBE7FEF750FDB4E700BF684C001022
:1020D000BC1A0020DA1A00202D1F0010881A0020D8
:1020E000E11C0010640E0020511D001000487047D4
:1020F000F04B0010004870479C4B001038B5184B4F
:1021000004461A780AB344B940F209424FF44173C5
:10211000144D6A8013482B8038BD052C1DD8124BF6
:10212000104D53F8241028460023013903E0132BE7
:1021300020F8022F0ED011F8012F0133DBB2002A54
:10214000F5D15B0043F44073E4E71121184600F039
:1021500025F8D8E74FF44A73DCE7002038BD00BF0C
:10216000C41A002030160020844B001000B545F240
:1021700047308BB0FFF780FA01220346092101A8FE
:102180009847DDE90332044912BA1BBAC1E90023BA
:102190000BB05DF804FB00BFB01A0020012901F16B
:1021A000FF3300F0B3805D490A784FEA121C9F2A82
:1021B0008CBF0CF1370C0CF1300C012B80F800C0F7
:1021C00000F0A78002F00F02092A8CBF37323032AC
:1021D000022B427000F09D804A784FEA121C9F2A21
:1021E0008CBF0CF1370C0CF1300C032B80F802C0C3
:1021F00000F08F8002F00F02092A8CBF3732303294
:10220000042BC27000F085808A784FEA121C9F2A46
:102210008CBF0CF1370C0CF1300C052B80F804C08E
:1022200077D002F00F02092A8CBF37323032062BEA
:1022300042716ED0CA784FEA121C9F2A8CBF0CF1F3
:10224000370C0CF1300C072B80F806C061D002F07F
:102250000F02092A8CBF37323032082BC27158D096
:102260000A794FEA121C9F2A8CBF0CF1370C0CF133
:10227000300C092B80F808C04BD002F00F02092A5D
:102280008CBF373230320A2B427242D04A794FEA41
:10229000121C9F2A8CBF0CF1370C0CF1300C0B2B4D
:1022A00080F80AC035D002F00F02092A8CBF3732FD
:1022B00030320C2BC2722CD08A794FEA121C9F2A22
:1022C0008CBF0CF1370C0CF1300C0D2B80F80CC0CE
:1022D0001FD002F00F02092A8CBF373230320E2B8A
:1022E000427316D0CA7911099F2A8CBF3731303119
:1022F0000F2B81730DD002F00F02092A94BF3032E8
:102300003732102BC27318BF103002D00023037075
:102310007047184400230370704700BFB01A0020B4
:1023200070B500F02DF90C234026194CFF22A3674D
:102330000E201849FEF786FA32460021164802F0B0
:102340004DF90125002380211348144A418445702A
:102350000683068782604360136042F8043C80F87D
:10236000213080F83B3043620D4B4FF00056C36084
:10237000C362803B836202F033FA4FF48032094932
:10238000094B25642846E664C4F89010DA6470BDF1
:10239000000011509D03002064160020840010509E
:1023A0000001105010D001000020115001210E201A
:1023B000FEF7D6B900220248114600F001B900BF6D
:1023C00084160020044B197021B14FF40032034BE6
:1023D000C3F89020704700BFD61A0020002011508B
:1023E0000B785B0602D14B78052B00D070474B88E9
:1023F000014ADBB21360704700001150CB782DE921
:10240000F04103F0030EBEF1010FC3F301005BD0F6
:10241000002791F802C0344C0CF07F0256008988E6
:1024200006EBDC1304EB43134FEADC15D876C1F35B
:102430000A0185F0010083F802C019835870DF702B
:10244000D3008DBB2948043304EB821C03EB000846
:10245000CCF808801F5082B3254BD2001344CCF82F
:102460000430244B3F311A6821F03F01BEF1020FC6
:1024700008BF4900114419601F4B771904EB471737
:102480009942FA602BD82E4404EB4613D97E82F091
:10249000A04282F480125B6842EA816242F000420C
:1024A0001A600120BDE8F081104804EB821C03444F
:1024B000CCF8283040F832704AB900220F4904EBBA
:1024C0004513D9605A60ECE70020BDE8F081D200E6
:1024D00002F1A04202F58012CCF82420C1E7FFF7F8
:1024E00017F9FA68CFE700BF64160020800010508B
:1024F000040010506C1A0020FF0F10500001105003
:1025000002F06EB98C4608B5114607481A460CF021
:102510007F034FEADC1C0CEB430C00EB4C1000F08B
:102520004FF8012008BD00BF6416002011F07F02A3
:1025300005D100290CBF02200120064B9866C9096D
:10254000054B01EB420003EB40104FF40062002109
:1025500002F04AB9002011506416002011F07F03E8
:1025600000D17047002205485B0003EBD11300EB5C
:1025700043106FF40061C27002F036B96416002097
:102580004FF0805209480A4908B50A4B02600A60B8
:102590009968C94311F08051FAD14FF4805206482E
:1025A00002F01CF80922054B5A6708BD00200240C2
:1025B00000300240000002400000105000001150A6
:1025C00000234FF0010C10B580F81AC08282C3823C
:1025D0000161044602F010F920B14FF40032074BBC
:1025E000C3F89020204602F00FF910B101232377A1
:1025F00010BD2046BDE8104002F0EAB8002011509E
:102600002DE9F04100241D4E054623463278DFF8BF
:1026100078801B4F0DE03B6813EB441324D0DB683C
:102620002846984732780134E4B2511CA14223462F
:1026300006DBA242A3EB0203EDD808EB4313EEE75F
:10264000542200210F4801F0C9FF4FF0FF330D481D
:102650002022041D4360C4E90133E360FF21BDE88B
:10266000F041143001F0BABF4FF0E023D3F8F03D51
:10267000DB0700D500BEBDE8F08100BFD51A002001
:102680003010002000120020044C0010704700BFE2
:10269000704700BF0020704700207047704700BFA0
:1026A000704700BF704700BF704700BF024B5878AB
:1026B000003818BF0120704700120020024B187824
:1026C000C0F38000704700BF001200202DE9F047E2
:1026D000DFF8E4A09AF80030FF2B56D10E4600290F
:1026E0003ED0002154220746294801F077FF0022FE
:1026F000284C294B20461A70FEF736FA274B2848FB
:102700001C60284CFEF73EFA204601F0ABFD264A3D
:10271000264B146023B12648FFF7C4FA254B1860F6
:102720000024234D23462A78DFF89090DFF8848038
:102730000EE0D8F8003013EB441311D05B687BB186
:1027400098472A780134E4B2511CA142234611DB98
:10275000A242EED89B1A09EB43135B68002BEFD122
:102760004FF0E023D3F8F03DDB0700D500BE00209A
:10277000BDE8F087314638468AF80070FFF7D0FD93
:102780000028EDD03846FFF711FE0120BDE8F087A4
:1027900000120020F8110020D71A00205412002047
:1027A000900E00207C0E002058120020A51C001066
:1027B000D51A002030100020980E0020044C001084
:1027C0002DE9F04FDFF8C8928BB099F80030FF2B5D
:1027D00000F0F180A84CA94DDFF8B0A2DFF8B4B248
:1027E00026687369EFF3108272B6D3E8CF0F012128
:1027F0000028FAD1C3E8401F0028F6D1BFF35F8F4D
:10280000B261304607A901F077FB00237269C2E884
:102810008F3FB36983F31088002800F0CC809DF8C7
:102820001D30013B072B00F27D83DFE803F0A7B1E9
:10283000959D8E350A04089B002BD1D009989847A6
:10284000CEE79DF8201001F07F0605EB460000EB77
:10285000D11090F8343023F0010380F8343090F830
:10286000343023F0040380F83430002E00F0A680CA
:10287000037D9AF80020934280F09380804A12688A
:1028800012EB431300F090809E699DF82120099B74
:102890009DF81C00B047A3E79BF80030002B00F028
:1028A00083809BF80030013BDBB28BF800309BF853
:1028B000003003F0FF00002B92D1704F9DF81C8078
:1028C0003B7843F001033B7097F8343060F300032A
:1028D00087F8343097F8343060F3820387F8343067
:1028E00097F8353060F3000387F8353097F83530C6
:1028F00060F3820387F8353000F06CFC9DF82030DF
:1029000003F06002602A6CD0402A7CD003F01F03E1
:10291000012B00F0C180022B00F08180002B60D1E0
:10292000202A00F0E981002A5BD19DF82130092B93
:1029300057D8DFE813F0B001A2015600C1015600DC
:1029400095016B0156006001F4002B78D9077FF5E3
:1029500047AFFFF7A9FE43E7EB78DA077FF540AF13
:102960000898FFF795FE3BE72B78D8077FF538AF3F
:102970002878C0F3C000FFF795FE31E79DF81C00F2
:10298000FFF73EFE00F01CFC9DF82030AB7027E7FF
:102990009DF81C00FFF734FE00F012FCFFF780FEEC
:1029A0001EE7501C984211DA4FF0E023D3F8F03DB7
:1029B000DC0700D500BE0BB0BDE8F08F099B9DF889
:1029C00021209DF81C0000F019FC09E79B1A2D4AF4
:1029D00002EB431358E7FFF78DFB0246002840F057
:1029E00082814FF0E023D3F8F03DDE0700D500BE32
:1029F0009DF81C000021FFF799FD80219DF81C0027
:102A0000FFF794FDECE6204800F0E4FB012140468E
:102A100008AAFFF733F900287FF4E2AEE8E79DF853
:102A2000241011F0700FDCD101F07F0607EB460097
:102A3000164B00EBD1101B78007D76000196984272
:102A40004FEAD116009659D35E1C8642C0F26681C9
:102A5000C01A0C4B03EB4016002A00F0638170692A
:102A600000F0B8FB01214046736908AA9847002886
:102A70007FF4B6AEBCE700BF581200200012002061
:102A800030100020044C00107D1C0010D51A0020CE
:102A9000980E0020D71A00209DF824300F2BA7D8BD
:102AA000AE4A3B441B791278934232D3511C99426F
:102AB0009EDBAB4E9B1A06EB4316706900F08AFB57
:102AC00001214046736908AA984700287FF488AE20
:102AD0009DF8203013F060068AD19DF821300A3B22
:102AE000012B85D800F076FB9DF821300A2B00F0F1
:102AF000F281404608A900F0F1FA71E6994B1B6893
:102B000003EB4016002A00F00D81002E3FF470AF59
:102B1000A5E7944A166816EB4316CED168E77B7892
:102B20009DF822609E4200F04F817B78002B40F0A0
:102B3000BE817E70002E00F04581701EC0B2FFF78E
:102B4000D9FA0346002800F05F814278022A40F05B
:102B50005B81C17903F10906C1F340121201C1F38F
:102B6000801142EA41123146387820F030000243A9
:102B70003A705A88CDF80C809A180192019B8B42CA
:102B800040F2A4814A780B2A00F0AF810123042A85
:102B900040F03A810026019A0096521A92B20292AF
:102BA0006E4A049312781DE06E4B1B6813EB4618B7
:102BB00000F02A81029AD8F81030039805919847BE
:102BC00008280246059906F1010303D902989042AC
:102BD00080F0FF80DEB2614B00961A78531C9E4253
:102BE00000F31281009BB242A3EB0202DCD85C4BE3
:102BF00003EB4218DEE77B7840468DF81A300DF182
:102C00001A02012308A900F083FAE9E5BDF82200C1
:102C1000030A013B020AC0B20E2B3FF6E9AE01A146
:102C200051F823F0392E0010D52C0010752E00100D
:102C3000F1290010F1290010572E0010D52C00109A
:102C4000F1290010F1290010F1290010F1290010DC
:102C5000F1290010F1290010F12900102B2E00108D
:102C600008A800F0BDFA40469DF82210FFF7A2FB2D
:102C70003B7843F002033B70B2E5BDF82230012BF4
:102C80007FF4B6AE3B78404623F0080308A93B70BA
:102C900000F024FAA4E540463B789A0802F00202CC
:102CA000C3F340131343ADF81A300DF11A02022397
:102CB00008A900F02DFA93E5BDF82230012B7FF42E
:102CC00097AE3B78404643F0080308A93B7000F0FC
:102CD00005FA85E5022A3FF47EAEFFF7DDFC0246E9
:102CE00000283FF485AE4046538808A900F010FA4A
:102CF00000287FF475AD7BE69DF824300F2B3FF65E
:102D000077AE164A3B441B79127893421DD2154A7E
:102D1000166816EB43167FF4A2AE69E6002A7FF42C
:102D200067AE00269DF8212002F0FD03012B1BD089
:102D3000002A7FF456AE019B009A3B44134493F85B
:102D400034304046C3F34003ADE7511C9942FFF6CF
:102D50004FAE034E9B1A06EB431680E6D51A0020B1
:102D6000044C001030100020BDF82230B3B9012A05
:102D700099F8000000F08680FFF7D8FB019B009ACD
:102D80003B44134493F8342042F0020283F8342089
:102D900093F8342042F0010283F83420002E3FF4EF
:102DA0001FAD706900F016FA7369012108AA404648
:102DB0009847002000F00EFA97F83530DF073FF50E
:102DC0000FAD96E6FFF76CFC404608A900F086F9C7
:102DD00006E5049B012B00F09E80002B00F08A800A
:102DE000002091F8028005E08CF804605FFA80FC16
:102DF00063457FD908EB000C57FA8CFC9CF804E083
:102E00000130BEF1FF0FEFD04FF0E023D3F8F03DDB
:102E1000DA0700D500BE4FF0E023D3F8F03DDB0722
:102E200000D500BE00237B70E2E5FEF723FF0246DB
:102E300000287FF458AFDBE5FFF758F90246002879
:102E40003FF4CFAD4046122308A900F061F90028F5
:102E50007FF4C6ACCCE5FFF71DFC024600283FF42A
:102E6000C7AD4046137808A900F052F900287FF456
:102E7000B7ACBDE5BDF82410FFF740F902460028C5
:102E8000EFD1B5E50293FFF769FB019A009B3A4445
:102E90001A4492F83410029B63F3410182F8341013
:102EA00092F8341063F3000182F8341076E70021C1
:102EB0004046FFF787FA4046FFF722FBBB784046C3
:102EC0000093FFF79DFB009BBB7032E6DDF80C80A2
:102ED000FFF7E4FB78E74046012308A90DF11A0249
:102EE0008DF81A6000F014F97AE40A78CB7811446E
:102EF0004A784CE6334610480492029100F076FE80
:102F00000E4B049A02991B781144009A01339342A4
:102F1000BFF634AE78E7D8F810C00948844508BF3A
:102F200002235DE74FF0E023D3F8F03DDB077FF5A8
:102F300057AC00BE54E400BF14120020D51A002084
:102F40000D3600102DE9F84F0A9F002A40D00C469C
:102F50001E4615464FF0000ADFF87C90DFF87C80B3
:102F600018E0204698F8021099F800B000F00EFE24
:102F7000E0B121465846FFF741FAF0B1A2780AF1D4
:102F8000010AD10916BF0B9B3A701A702278AA4524
:102F900014441DD06278052A0FD1E17801F00301B5
:102FA000B1420AD1A27812F0700FDAD04FF0E023CC
:102FB000D3F8F03DDA0700D500BE4FF0E023D3F898
:102FC000F03DDB0702D40020BDE8F88F00BEFAE731
:102FD0000120BDE8F88F00BF980E002000120020ED
:102FE00038B58B7813F0700F08D04FF0E023D3F88A
:102FF000F03DDB0700D500BE002038BD074A084B76
:103000000C46084691781D7800F0C0FD0028ECD0F1
:1030100021462846BDE83840FFF7F0B900120020ED
:10302000980E00200B46064A06481168DA09343229
:1030300003F07F0302EB4303184400F061BD00BFBF
:1030400054120020001200200B46064A0648116860
:10305000DA09343203F07F0302EB4303184400F033
:1030600079BD00BF541200200012002010B519488D
:1030700001F07F0C00EB4C0000EBD11090F834C055
:103080001CF0010F08D04FF0E023D3F8F03DDA0731
:1030900000D500BE002010BD00F1300494F804C03B
:1030A0000D484CF0010C007884F804C0FFF72AFAB0
:1030B0000028F0D14FF0E021227960F30002227164
:1030C000227960F382022271D1F8F03DDB07E1D56D
:1030D00000BEDFE700120020980E002030B50B4C38
:1030E0008C46A6460546086849680023AEE80300FA
:1030F0009CF800102846C943C4E90233BDE83040BB
:103100001A4601F08001FFF7B1BF00BFC0110020D7
:103110002DE9F041284F4FF00008BE468C46064688
:1031200008684968BA60AEE80300A7F80E80154643
:10313000BCF80620934228BF1346BB819AB11C46B7
:1031400033B3DDB197F90030402C28BF4024002B69
:1031500029DB414623463046184AFFF787FF68B10E
:103160000120BDE8F0819CF800101346C9433046A9
:1031700001F08001FFF77AFF0028F1D14FF0E02342
:10318000D3F8F03DDB0700D500BE0020BDE8F0819C
:103190001A46397801F0800123463046FFF766FF72
:1031A0000028DDD1EAE722462946044801F064FA06
:1031B0008021024AF0E700BFC011002080110020EA
:1031C0000022034BC3E90022C3E902221A617047BF
:1031D000C0110020014B1861704700BFC0110020D2
:1031E00030B40246044C0025234600685168C4E907
:1031F000025530BC03C37047C011002070B53D4C70
:10320000C90922780646B1EBD21F1D4682B017D0FD
:1032100053B14FF0E023D3F8F03DDB0702D4002098
:1032200002B070BD00BEFAE72146FFF7D9F8236966
:103230001BB12246032130469847012002B070BDE1
:1032400094F90030002B06DBA0680028E7D02A465E
:10325000294901F011FAE089A168E388284480B285
:1032600029448342E081A16016D03F2D14D9A28960
:1032700094F90040131A9BB2402B28BF4023002C26
:1032800027DB90424FF0000131D01B4A3046FFF758
:10329000EDFE0028D1D1BCE7236923B102213046DD
:1032A000144A984760B121780023C94330461A4632
:1032B00001F08001FFF7DAFE0028AAD00120BDE767
:1032C00001463046FFF732F980213046FFF72EF9EC
:1032D000B3E7904208D01A460748019301F0CCF9B1
:1032E0008021054A019BD1E780210022CEE70A46D2
:1032F000CCE700BFC0110020801100202DE9F04173
:103300000446FFF7D3F908B9BDE8F081FFF7D6F915
:1033100005460028F8D1C82304FB03F3124EF71822
:10332000F9780029F0D010331E44304600F0D2FD69
:103330003F28E9D92846F978FFF774FE0028E3D042
:10334000304600F0C7FD3F28F97808D9074A2846DB
:1033500002EBC4124023BDE8F041FFF787BE2846C8
:10336000BDE8F041FFF770BEB81000203410002017
:1033700010B50446FFF79AF908B9002010BDFFF711
:103380009DF90028F9D1C822034B02FB04331879B8
:1033900000F0010010BD00BFB8100020C82208B521
:1033A000024B02FB003000F07BFD08BDC81000207E
:1033B0002DE9F8434FF6FF73C8249A4228BF1A46F6
:1033C00000FB04F4DFF8748004F110054544064660
:1033D00092B2284600F0DAFD0746FFF767F910B908
:1033E0003846BDE8F883FFF769F981460028F7D130
:1033F000A04498F80330002BF2D0284600F06AFD74
:103400003F28EDD9484698F80310FFF70BFE002837
:10341000E6D0284600F05EFD3F2898F8031007D953
:10342000054A4846402302EBC612FFF71FFED7E7C6
:103430004846FFF709FED3E734100020B8100020FB
:103440002DE9F0410446FFF731F910B90020BDE83D
:10345000F081FFF733F905460028F7D1C82604FBB1
:1034600006F6DFF8648006F124074744384600F08A
:1034700017FD0028EAD0B044284698F80210FFF75C
:10348000D1FD0028E2D00F4E384606EBC416314677
:10349000402200F07BFD98F80210044668B1034614
:1034A00032462846FFF7E2FD50B94FF0E023D3F84B
:1034B000F03DDB07CAD500BEC8E7FFF7C5FDC5E78D
:1034C0002046C4E774100020B810002038B54FF62D
:1034D000FF75C823AA4228BF2A460B4C92B203FBB1
:1034E00000440546204600F00FFE034620461C46D9
:1034F00000F0D6FC3F2801D8204638BD2846FFF70B
:103500009FFF204638BD00BFDC100020C82208B550
:10351000024B02FB003000F0DDFC08BDDC10002097
:10352000F0B5002483B0C8220021174801F056F8F6
:10353000FF234FF4E131082214480470124800942C
:10354000074643718160827300F1380101234022F4
:10355000103000F075FC0123402207F17801009340
:1035600007F1B80607F1240000F06AFC07F1C00576
:103570003046FDF7F9FA2846FDF7F6FAC7E907469F
:10358000C7E90C5403B0F0BDB8100020B4100020FF
:103590000A4A116B136A61B13BB10023C2E90C33D3
:1035A000D36100231362012070470120C2E90C336C
:1035B0007047002BF7D0D161F3E700BFB8100020AF
:1035C000002210B50E4C0F48237802600271DA0712
:1035D00007D59B070BD5BDE8104001210A4800F034
:1035E0005DBE103000F03EFE23789B07F3D4064802
:1035F00000F038FEBDE810400121034800F04EBE47
:10360000B4100020B8100020DC100020F0B54B7979
:1036100083B0022B02D18B79022B03D000252846E0
:1036200003B0F0BD274FBB783BB14FF0E023D3F898
:10363000F03DDB07F2D500BEF0E78B7806463B7025
:103640000B78CC186178242908BF092507D036E00B
:1036500023781C4461782B4424299DB207D1AA42C7
:10366000F6D20020FFF74AFE284603B0F0BD0B4615
:10367000052916D0042BF4D163790A2BF1D1124B12
:103680002778019301330093022330461A46E1194B
:10369000FFF758FC0028C8D00E3517FA85F5ADB2F3
:1036A000DFE721463046FFF79BFC0028BDD0A3781A
:1036B0007B7023785A191C44637895B2DAE70B467D
:1036C0000925D5E7B8100020BA100020137803F0C0
:1036D0006003202B08D170B5264C938894F800C065
:1036E0009C4503D0002070BD002070475378203BDC
:1036F000032BF7D8DFE803F027230D0201292ED092
:1037000003291ED11C4BE3B100205188AFF3008088
:1037100017E0012923D0032913D15588174805F054
:10372000010686F00101257100F0B8FD144B43B18C
:1037300031460020C5F34002AFF3008001E00129CB
:1037400011D0012070BD01290DD00329F9D10D4BF5
:10375000002BF6D000200C49FEF7ACFAF1E7114639
:10376000FFF7BCFCEDE711460723074AFFF7D0FC43
:10377000E7E700BFB810002000000000DC100020C8
:1037800000000000B51C0010C01000202DE9F84317
:10379000354E0C46F27807468A421D463DD0B37836
:1037A0008B4212D04FF0E023D3F8F03DDB0732D448
:1037B0000020BDE8F8832D4B23B12D4800F080FB9D
:1037C00000284DD00020FFF799FDB378A34201D027
:1037D0000120EEE7274B13B10020AFF3008000205B
:1037E000FFF72EFE0028F3D1234800F059FB0028F4
:1037F000EED1002DECD015F03F05E9D13846B17877
:10380000FFF710FC0028E3D02B462A463846B17853
:10381000FFF72CFCDCE700BECAE79AB2174906F1B5
:10382000100000F071FC164B002BC4D07379FF2BF5
:10383000C1D0002DBFD0DFF8448008EB050902E0BD
:10384000C845B8D0737918F8012B9A42F8D10848C6
:1038500000F036FB0028F3D17179AFF30080EFE779
:10386000AFF30080AEE700BFB810002000000000FA
:10387000C810002000000000DC10002034100020E0
:1038800000000000F0B54FF4137285B0002112481B
:1038900000F0A4FE402600234FF480750E4F0F4C1D
:1038A00007F5A6721946CDE90246009201951A461F
:1038B00007F5947000F0C6F90023384607F1280197
:1038C0003444009101221946CDE9024601950430A5
:1038D00000F0B8F905B0F0BDA813002028130020AF
:1038E00008B5054800F0DAF9034BA3F5927000F033
:1038F000D5F9012008BD00BFD014002038B500253F
:10390000064C04F59870257000F0ACFC04F10C0036
:1039100000F0A8FC84F82951657138BDA813002077
:103920002DE9F8434B79FF2B51D1354E96F82931CB
:10393000002B4CD196F80580B8F1000F47D18B7859
:103940000C7833700B790F460C44ABB38146A51845
:1039500003E0A54230D923781C446378052BF8D1C5
:10396000AC4229D221464846FFF73AFB40B3A37840
:10397000DB092FD1234800F075FCA37896F82821A5
:1039800086F82931A3884846C3F30A03A3F50073D8
:10399000B3FA83F35B0963F341021B4986F82821DC
:1039A00000F0EAF960B123783A7908F101081C4483
:1039B0005FFA88F39A42D0D8E11B88B2BDE8F88359
:1039C0004FF0E023D3F8F03DDB0700D500BE002028
:1039D000BDE8F8830D4800F045FCA3783279737197
:1039E000A3880B49C3F30A03A3F50073B3FA83F367
:1039F0005B0963F341020020327100F085F9D2E7E0
:103A0000A8130020D8140020D0140020B4130020E4
:103A1000AC13002070B51B4C064694F829C11D4616
:103A20008C4511D063798B4201D0002070BD164BBC
:103A30001BB10020A9B2AFF300803046134900F05B
:103A400063F9C8B1012070BDB4F8343163B9104BCB
:103A500023B100200F49AAB2AFF3008030460E49CF
:103A600000F08AF90120EEE7D4F82C11AAB204F58F
:103A7000987000F049FBEAE72A463046034900F017
:103A80000FF9DFE7A813002000000000AC130020AE
:103A90000000000028130020D014002010B582B0D0
:103AA000C9B101280CD80B7853B1144C012B235405
:103AB00002D0012002B010BDFEF708FE0028F8D1A8
:103AC0004FF0E023D3F8F03DDB0702D4002002B032
:103AD00010BD00BEFAE70124084601A9ADF8044074
:103AE000FEF7F4FD38B94FF0E023D3F8F03DDA07E4
:103AF000EDD500BEEBE7014B1C70E8E7F4110020A8
:103B0000F8B5037813F001041AD1037805465A0773
:103B1000C3F3800701D52046F8BD0E464FF0FF31B4
:103B2000304600F051FE2B7813F001040BD12B78B6
:103B30005B0709D42B78012443F004032B7003E0C6
:103B400000242046F8BD3C46304600F045FE2046A5
:103B5000F8BD00BF70B50C4605464FF0FF3120465A
:103B600000F032FE2B78C3F380065B0708D52B7874
:103B700013F0010311BF00262A7863F382022A7032
:103B8000204600F029FE304670BD00BFC378828811
:103B900003F003000228C2F30A0215D003280AD05A
:103BA00001281CD1022940F2FF3308BF4FF4806383
:103BB00093420DD37047022914BF40234FF4806312
:103BC000934205D30120704702290AD0402AF9D92F
:103BD0004FF0E023D3F8F03DDB0700D500BE002016
:103BE0007047B2F5007FEDD0F2E700BF0A44914282
:103BF00026D291F801C0BCF1050F05D091F800C0A4
:103C000061448A42F5D8704700B591F802C00CF0C3
:103C10007F0E00EB4E0E4FEADC1C0EF80C3091F8D4
:103C200000C061448A4209D991F801C0BCF1050F76
:103C3000EBD091F800C061448A42F5D85DF804FBEE
:103C4000704700BF2DE9F0418E4682B0009390F896
:103C500000C0089EBDF824706EF3000C04461546A3
:103C6000012331463A4600F808CBBDF82C8000F01D
:103C7000E7F806B13FB901200A9BA4F8028063600F
:103C800002B0BDE8F08104F11C063046FCF76CFF81
:103C90000DB135460026C4E90556ECE70120704712
:103CA000F8B50746084640F2FF13154610F8082BF2
:103CB0000C4612F0020F0CBF3F261E4600F0F0F833
:103CC00028B925B12E4202D12378DA0701D5002088
:103CD000F8BD38466178FFF7A5F90028F7D02378BA
:103CE00013F0010307D04FF0E023D3F8F03DDB07DA
:103CF000EDD500BEEBE71A4638466178FFF7B6F916
:103D00000028F0D0F8BD00BF70B501F108050646E7
:103D100028460C4600F0C4F810B12378DA0701D524
:103D2000002070BD30466178FFF77CF90028F7D09D
:103D300028466288616800F029F92378054603F077
:103D4000010340B173B14FF0E023D3F8F03DDB073E
:103D5000E6D500BEE4E7002BE2D130466178FFF7FC
:103D600073F9DDE70346626830466178FFF77EF954
:103D70000028E8D0284670BD8A892DE9F0410B78EB
:103D80000C46064622B9DD0734D50020BDE8F08197
:103D900004F108079907384647BF4FF47E484FF4AF
:103DA00000754FF6C078402500F094F88542ECD8B5
:103DB0002378DA07E9D430466178FFF733F9002831
:103DC000E3D0384600F086F82378854203F00103FB
:103DD0002DD8BBB9658808EA0008454528BF454687
:103DE00061785DB362682B463046FFF73FF948B112
:103DF0002846CBE74978FFF715F90028C5D0237886
:103E0000D80707D54FF0E023D3F8F03DDB07BCD54A
:103E100000BEBAE7638861783BB162683046FFF75D
:103E200025F90028EED06088B0E71A46F6E7002BA7
:103E3000ABD130466178FFF707F9A6E72A46D2E70B
:103E40002DE9F041B2F5004F9DF8188024D80446C2
:103E5000C06817460E461D4618B14FF0FF3100F0FE
:103E6000B3FC206918B14FF0FF3100F0ADFC002227
:103E7000C5F30E03E06843EAC83362812660A78079
:103E8000E380228108B100F0A7FC206908B100F0AE
:103E9000A3FC0120BDE8F0810020BDE8F08100BF57
:103EA000038942899BB292B28088934236BFC2EBAB
:103EB00040029B1A9B189BB2984228BF1846704735
:103EC0000289438990B29BB2C01AB0FA80F04009CF
:103ED000704700BF038942899BB2808892B29342A7
:103EE00036BFC2EB40029B1A9B189BB2984286BF1A
:103EF000C01A80B20020704738B5044600690D46EC
:103F000018B14FF0FF3100F05FFC2189638989B25D
:103F10009BB2A288994236BFC3EB4200C81A401830
:103F200080B250B3824209D291422CBF891A8918BB
:103F30008BB29A42638103D89B1A9BB29A42FBD9F7
:103F4000E2882168C2F30E0202FB0311284600F04A
:103F500093FB6189012589B24B1C9BB29942A288CF
:103F60000ED9002302FA05F15B1A9BB22069638126
:103F700008B100F031FC284638BD054663899BB284
:103F8000B3EB420F4FEA4201F0DBEDE72DE9F047DA
:103F9000064600698846914618B14FF0FF3100F09F
:103FA00013FC338974899BB2A4B2B588A34236BF8F
:103FB000C4EB45071F1BFF18BFB2002F4AD0BD42FC
:103FC00040D3B94528BFB946A5421FFA89F703D89F
:103FD000641BA4B2A542FBD9B6F806A02B1B31681E
:103FE0009BB2CAF30E029F42924602FB041123D9F0
:103FF00013FB02F31FFA83F94A4640467D1B00F08B
:104000003BFB621912FB0AF2316808EB090092B21D
:1040100000F032FB7289B58892B2D3199BB29A42F2
:104020001AD96A009B1A9BB23069738108B100F0FB
:10403000D3FB3846BDE8F087404607FB02F200F0AC
:104040001BFBE7E7AB422CBF5B1B5B199CB22F4607
:104050007481B6E773899BB2B3EB450F4FEA450213
:10406000E2DBDFE7F8B50446C0680E4618B14FF052
:10407000FF3100F0A9FB2589238961899BB289B2B0
:10408000A2888B4236BFC1EB42015B1A5B189BB220
:104090009A42ADB208D8E779FF0905D1E06808B1C6
:1040A00000F09AFB3846F8BD954228BF2B4618D33E
:1040B0009B1A9BB29342FBD2E2882068C2F30E02A5
:1040C00002FB0300314600F0D7FA6B1C9BB29D4205
:1040D000A28812D9002351005B1A9BB201272381C9
:1040E000DCE7E2882068C2F30E0205FB02003146DD
:1040F00000F0C2FA0135A288ABB2B3EB420F4FEA2F
:104100004201EBDBE8E700BF2DE9F04F174683B033
:10411000002A75D00646C068894618B14FF0FF31B5
:1041200000F052FBF379B6F808807289DB09B58894
:104130001FFA88F892B23CD1904536BFC2EB4502D7
:10414000A8EB0202424492B2AA425ED2AA1A92B2EA
:10415000BA4228BF3A46B6F806B097B27B1B08EBC6
:10416000070ACBF30E0B9BB21FFA8AFAA845444606
:1041700003D3641BA4B2AC42FBD22D1B3068ADB29A
:10418000BD420BFB040057D349460BFB07F200F07E
:1041900073FAB288D0454FEA420302D8BAEB420F15
:1041A00003DBAAEB03031FFA83FA3D46A6F808A037
:1041B0002CE0B6F806B0AF42CBF30E0B2FD29045F1
:1041C00036BFC2EB4501A8EB0201414489B2680049
:1041D00039447B1B81429BB20DDB02EB050A1FFABF
:1041E0008AFAAAEB07081FFA88F8424537D9A8EBE4
:1041F00000001FFA80F807EB080A1FFA8AFAB5E7F1
:104200001546284603B0BDE8F08F0025F068002869
:10421000F7D000F0E1FA284603B0BDE8F08F002D9A
:10422000F4D07F1B02EB050A0BFB079990462F4643
:1042300000231FFA8AFA99E715FB0BF5ADB22A465F
:104240004946019300F018FA019B3068E21812FB0E
:104250000BF209EB050192B200F00EFA99E7404526
:1042600084DCC4E710B50446C06818B14FF0FF31D4
:1042700000F0AAFA206918B14FF0FF3100F0A4FA5B
:104280000023E0686381238108B100F0A5FA20696A
:1042900008B100F0A1FA012010BD00BF38B50446F6
:1042A000C0680D4618B14FF0FF3100F08DFA20695B
:1042B00018B14FF0FF3100F087FAE379E06865F359
:1042C000C713E37108B100F087FA206908B100F064
:1042D00083FA012038BD00BF2DE9F041D0F86841D4
:1042E0009DF81860121B1F2A38D84EF29F044EF218
:1042F00080054FF4003801EB410C002E18BF254615
:1043000000EBCC0404F5435400EBCC0C052BDCF89B
:10431000DC704FEA410EDCF8CC60C4F80C800CD99C
:104320005401053B44F0A0540532052BCCF8DC4089
:1043300002F01F02CCF8D850F2D8714400EBC10152
:104340000020520142EA8363C1F8DC30C1F8D85042
:10435000C1F8DC70C1F8CC60BDE8F0816FF00400FA
:10436000FAE700BFF0B5012504688D4024EA050492
:104370000460B3B3D3E901561F68DC6801EB410365
:1043800000EBC303C3F8C8704FEA410CC3F8D06018
:10439000C3F8CC50C3F8DC400CEB01034FF00135FF
:1043A00000EBC30C4FF0004600EBC30E01230EF5EB
:1043B000865E0C1D01F108078D40CEF8106003FAEF
:1043C00004F4CEF8106002F01F028560BB4000F5D7
:1043D000005004600EF1100E03600020CCF8D820CD
:1043E000F0BD4FF480374FF440264FF4F83501EB21
:1043F000410400EBC404C4F8C8704FEA410CC4F88F
:10440000D060C4F8CC50C4F8DC30C5E72DE9F04FDB
:1044100081460E46934687B0534D544FDFF858817E
:1044200002932C0DA4F20254A40035602246002110
:104430004F480097E31CFCF7DBF8A04203DB001BAE
:1044400044B2002C09DAA5F580154545E9D10023D1
:104450001846336007B0BDE8F08FFCF781F8012102
:1044600099F804A0D6F800C001FA0AF1DCF8683126
:104470004B1E99F9052003930CF12F433D4903F599
:1044800060031B0D002A51F823E005930490CAF144
:1044900020034FDB93423FDB039B934013EA0E0F55
:1044A0003AD1DCF86831104699F807208BB3D3076E
:1044B00031D4039A82401EEA020F2CD1594653464A
:1044C000E346DDF808A08C46D9F8005083B10646D3
:1044D00005EB430335F8021B06F11207B1F5005F47
:1044E00038BF09189D424BF8271006F10106F1D19B
:1044F000204B0599CCF800404EEA0202CAF80000B1
:10450000049843F82120FCF73DF8012007B0BDE8EE
:10451000F08F5107CDD50498FCF734F83168144872
:1045200001F12F4101F56001090D04EB8101FCF758
:104530009FF888E7002BEEDB039901E05A1CEAD0D4
:1045400001FA03F212EA0E0F184603F1FF33F5D118
:10455000DCF8682199F80730039112B95B07A8D5F8
:10456000D9E7DA07A5D5D6E700004050F449001096
:10457000041600201C1300200000105010B5002469
:1045800084B0CDE901440094FFF740FF04B010BDB2
:104590004FF0010C70B50C461646017904F12F441A
:1045A0000CFA01F5013D9D4004F56004FBF7D8FFCE
:1045B000084A240D52F8243023EA050342F8243037
:1045C000FBF7E0FF06EB84010348BDE87040FCF711
:1045D0004FB800BF1C13002004160020830730B51D
:1045E00046D08418844604E003F8011B9D0704D0DC
:1045F0009C46A4456346F7D130BD013A0244A2EB84
:104600000C02032A29D9CCB20F2A04EB042404EBB0
:1046100004442FD9A2F1100C03F110052CF00F0C5B
:10462000AC44C3E90044C3E9024410336345F8D104
:1046300012F00C0F02F00F0E18D02EF0030CAEF19A
:1046400004051A469C4442F8044B6245FBD125F010
:10465000030404330EF003022344002ACCD0C9B271
:104660001A4403F8011B9342FBD130BD7246F4E7B4
:104670000346C6E79646E0E7844641EA000313F0A6
:10468000030349D1403A23D30B6803604B6843606E
:104690008B688360CB68C3600B6903614B694361BE
:1046A0008B698361CB69C3610B6A03624B6A4362A6
:1046B0008B6A8362CB6AC3620B6B03634B6B43638E
:1046C0008B6B8363CB6BC36340304031403ADBD2AA
:1046D00030320BD30B6803604B6843608B68836098
:1046E000CB68C36010301031103AF3D20C3205D3CE
:1046F00051F8043B40F8043B043AF9D2043208D0A4
:10470000D2071CBF11F8013B00F8013B01D30B8815
:1047100003806046704700BF082A13D38B07B1D0CF
:1047200010F00303AED0C3F10403D21ADB071CBFA1
:1047300011F8013B00F8013BA4D331F8023B20F80B
:10474000023B9FE7043AD9D3013A11F8013B00F844
:10475000013BF9D20B7803704B7843708B788370F0
:104760006046704720F0030110F00300C0F1000024
:1047700051F8043B00F1040C4FEACC0C6FF000023E
:104780001CBF22FA0CF213434FF0010C4CEA0C2C24
:104790004CEA0C4CA3EB0C0222EA030212EACC1204
:1047A00004BF51F8043B0430F4D0C2F1000102EA26
:1047B0000102B2FA82F2C2F11F0200EBD20070478E
:1047C000F8B500BF000000005FF800F035020020DF
:1047D0005FF800F00D0B00205FF800F06D02002084
:1047E0005FF800F0A90200205FF800F0C90A00207D
:1047F0005FF800F0CD0100205FF800F06D0A0020A6
:104800005FF800F0110100205FF800F0950A002029
:10481000C91700103D17001071170010151800106F
:10482000A9170010C1160010F1170010AD160010E6
:104830001D0B0010F5170010E10E00100D170010F1
:10484000DD1700108D170010F90600102107001069
:08485000190200106D21001097
:1048580044C3A96D617272616765206475207072C6
:104868006F6772616D6D65005374617465206D6169
:104878006368696E657320636F6E666967757265D4
:10488800640000006D6F746F72732066696E6973DF
:10489800686564000A2A2A2A2050414E4943202A82
:1048A8002A2A0A000A0000004E6F207370696E6C95
:1048B8006F636B732061726520617661696C6162F8
:1048C8006C6500004E6F20757365722049525173F4
:1048D8002061726520617661696C61626C650000B7
:1048E800486172647761726520616C61726D202520
:1048F8006420616C726561647920636C61696D65BF
:10490800640000004861726420617373657274000A
:1049180052656C6561736500626F6F74325F7732E0
:104928003571303830000000322E312E3100000051
:104938007069636F32000000737175617265776129
:10494800766500004A756C203232203230323500EC
:1049580055534220737464696E202F207374646FFA
:1049680075740000526173706265727279205069C3
:10497800000000005069636F00000000426F617220
:1049880064204344430000005265736574000000CE
:10499800556E68616E646C656420495251203078A8
:1049A80025780A00657020253032582077617320F9
:1049B800616C726561647920617661696C61626CB1
:1049C8006500000043616E277420636F6E74696E22
:1049D80075652078666572206F6E20696E616374F4
:1049E8006976652065702025303258004E6F20505A
:1049F800494F207374617465206D616368696E65E1
:104A0800732061726520617661696C61626C650012
:104A1800204A001009FF010081E0A08027A027009C
:104A280001E900E9430030C00800000006005250C8
:104A3800D3F075421849001006005250E182887F71
:104A48002049001006005250ABB3605330490010A3
:104A580006005250BBFF3CB63849001006005250C1
:104A6800861C030240490010060052505422A29DA1
:104A78004C49001005005250DE65F468145A0010C5
:104A88000D0A000000000000E91B001000000000F3
:104A9800ED1B0010F91B0010251C0010211C001034
:104AA800000000000A00000000000306A60008003D
:104AB800020002009C001400030057494E5553425F
:104AC8000000000000000000000080000400010059
:104AD800280044006500760069006300650049000D
:104AE8006E00740065007200660061006300650076
:104AF800470055004900440000004E007B0062005A
:104B080063003700330039003800630031002D009E
:104B180037003300630064002D0034006300620036
:104B280037002D0039003800620038002D003900A8
:104B3800310033006100380066006300610037000F
:104B48006200660036007D0000000000050F2100AD
:104B5800011C100500DF60DDD88945C74C9CD26573
:104B68009D9E648A9F00000306A6000100000000C5
:104B78000600525053B4F4A1584900100000000038
:104B88006C4900107C490010C41A002084490010A8
:104B98009049001009025400030100807D080B00B1
:104BA80002020200000904000001020200040524B8
:104BB8000020010524010001042402060524060042
:104BC800010705810308001009040100020A00001A
:104BD80000070502024000000705820240000009A4
:104BE80004020000FF00010512011002EF0201405B
:104BF8008A2E0900000101020301000000000000E4
:104C08002135001091350010C13500100D36001007
:104C1800CD3600108D3700100000000000000000A5
:104C280085380010E1380010FD38001021390010D7
:0C4C38007D1C0010153A00100000000068
:084C440034FAFF7F01000000BB
:104C4C00344A0010404A00104C4A0010584A0010D8
:104C5C00644A0010704A00107C4A0010784B001017
:104C6C00034600B50268EFF3108C72B6D2E8CFEFB2
:104C7C000120BEF1000FF9D1C2E84E0FBEF1000FBA
:104C8C00F4D1BFF35F8F93F90420002A0ADB01B142
:104C9C000A60002000221B68C3E88F2F8CF3108859
:104CAC005DF804FB4FF05042126801201A71F1E7D5
:104CBC004FF050412DE9F0410027044616461D46A1
:104CCC00D1F8008008E0C1E88F7F8CF31088304663
:104CDC00294600F035FEE8B92168EFF3108C72B666
:104CEC00D1E8CF2F0123002AFAD1C1E8423F002A94
:104CFC00F6D1BFF35F8F94F904302168002BE2DA10
:104D0C00002384F80480C1E88F3F8CF310880120C5
:104D1C00BDE8F0810020BDE8F08100BF30B504682B
:104D2C00EFF3108C72B6D4E8CFEF0125BEF1000F73
:104D3C00F9D1C4E84E5FBEF1000FF4D1BFF35F8F21
:104D4C0090F904400568002C10DB0021C5E88F1F8A
:104D5C008CF310884FF0504595F90050A54201D1C5
:104D6C00084630BDBDE83040FFF7A2BF4FF05042BF
:104D7C00126800230271C5E88F3F8CF31088012064
:104D8C0030BD00BF70B505460C4600F0CDFD0246A7
:104D9C000B464FF47A704FF0FF3E6FF0004CE4FB83
:104DAC00002396457CEB030138BF72462846BDE8CC
:104DBC00704038BF6346FFF77BBF00BF0368EFF35B
:104DCC00108272B6D3E8CFCF0121BCF1000FF9D11C
:104DDC00C3E84C1FBCF1000FF4D1BFF35F8F4FF051
:104DEC00FF0C0023016880F804C0C1E88F3F82F3F8
:104DFC00108840BF704700BF002108B5134B4FF41B
:104E0C00707299601248D960196159619961D961C0
:104E1C00196259629962D962196359639963D963AA
:104E2C00196459649964D964196559659965D9658A
:104E3C00196659669966D966196759679967D9676A
:104E4C0000F076FD034B044A1A6008BD00001050B8
:104E5C00A41600206C1A0020800110502DE9F04F90
:104E6C001F4B85B0D3F858A0BAF1000F22D0002404
:104E7C0001254FF4E069DFF870801A4F01E0202C17
:104E8C0018D00AEA0502611C2346AB46CCB26D0071
:104E9C00002AF4D004F0010203F0FE06164407EBDE
:104EAC0046163046C8F858B000F00AFC28B93AEA61
:104EBC000B0AE4D105B0BDE8F08F00238DF8093062
:104ECC00B37801A88DF80830F38A0121ADF804906D
:104EDC00039300F013FC304600F098FBE7E700BFAB
:104EEC00000011506416002000301150F0B5BB4B7F
:104EFC0085B0D3F8985015F4003674D0B84BB94C33
:104F0C00996A94F83B30B84A022B116000F0D480B7
:104F1C00002694F87B30022B00F03B8194F8BB30D8
:104F2C00022B00F07D8194F8FB30022B00F06C8199
:104F3C0094F83B31022B00F0448194F87B31022B26
:104F4C0000F0338194F8BB31022B00F0B68194F859
:104F5C00FB31022B00F0A68194F83B32022B00F0BF
:104F6C00968194F87B32022B00F0868194F8BB3248
:104F7C00022B00F0768194F8FB32022B00F0668154
:104F8C0094F83B33022B00F0568194F87B33022BC0
:104F9C0000F0A48094F8BB33022B00F0998194F8B4
:104FAC00FB33022B00F0B4803EB9904B1B7823B935
:104FBC004FF400328E4BC3F890204FF44072874B65
:104FCC0001219B6C01A8C3F30A03ADF804200293E2
:104FDC0000F094FBEA064FF40036864C07D5FFF739
:104FEC003DFF264603E0EA064FF01004F7D4EB032E
:104FFC0022D57C4C46F48036A37E002B40F0998061
:10500C00012394F83A20E370002A40F0AD8001238C
:10501C004FF4C061784A84F82330ADF8041092E85C
:10502C00030004AA02E90300194601A800F066FB7C
:10503C004FF400326E4B1A65E90408D46A041DD48F
:10504C002B042AD4AE4240F0C58105B0F0BD00243B
:10505C00624B46F480561C60FFF7CEFE4FF4807313
:10506C00012101A8ADF804308DF8084000F046FB92
:10507C004FF400225E4B1A656A04E1D54FF480634D
:10508C00012101A8ADF8043000F038FB1022584B78
:10509C0046F480461A652B04D4D54FF4A063012145
:1050AC0001A8ADF8043000F029FB4FF40062504B1E
:1050BC0046F400461A65C5E794F83A60002E3FF4B2
:1050CC0028AF94F83C30002B3FF423AF002304F1BD
:1050DC00200084F83C3000F0C1FA1AE794F87A7397
:1050EC00002F3FF457AF94F87C33002B40F06481D1
:1050FC0094F8BB33022B40F0F48094F8BA33002BB5
:10510C0040F0EB8094F8FB33022B7FF456AF3E4615
:10511C0094F8FA33002B3FF447AF94F8FC33002B90
:10512C003FF44BAF0023354884F8FC3300F096FA7B
:10513C0043E70221324B294A1966536E9F07FCD56F
:10514C004FF440520021274800F066FA254800F041
:10515C005DFA0222264B5A661A66012394F83A200D
:10516C00E370002A3FF453AF254A1366A2F50052B0
:10517C00536ED807FCD54FF440520021214800F063
:10518C004BFA204800F042FA0122194B5A661A6673
:10519C003DE794F87A70002F3FF4C0AE94F87C3061
:1051AC00002B40F001813E46B8E694F87A71002F4E
:1051BC003FF4C8AE94F87C31002B40F0ED803E46B5
:1051CC00C0E694F83A71002F3FF4B7AE94F83C3136
:1051DC00002B40F0D9803E46AFE600BF00001150D6
:1051EC0000000B40641600205C160020D61A00202C
:1051FC00003011501000020000001050441A002022
:10520C00002011508416002094F8FA70002F3FF4FF
:10521C008FAE94F8FC30002B40F08E803E4687E633
:10522C0094F8BA70002F3FF47EAE94F8BC30002B8B
:10523C007AD13E4677E694F83A73002F3FF4A5AE48
:10524C0094F83C33002B57D13E469EE694F8FA7204
:10525C00002F3FF495AE94F8FC32002B5CD13E4607
:10526C008EE694F8BA72002F3FF485AE94F8BC32F7
:10527C00002B49D13E467EE694F87A72002F3FF41B
:10528C0075AE94F87C32002B76D13E466EE694F8DF
:10529C003A72002F3FF465AE94F83C32002B63D188
:1052AC003E465EE694F8FA71002F3FF455AE94F842
:1052BC00FC31002B50D13E464EE694F8BA71002FCB
:1052CC003FF445AE94F8BC31002B3DD13E463EE652
:1052DC0094F8BA33002B3FF462AE94F8BC33002B35
:1052EC0071D194F8FB33022B7FF467AE94F8FA3348
:1052FC00002B3FF462AE10E70023394884F83C33AE
:10530C003E4600F0ABF940E60023364884F8BC3248
:10531C003E4600F0A3F92EE60023334884F8FC3215
:10532C003E4600F09BF92BE60023304884F8BC3055
:10533C003E4600F093F9F6E500232D4884F8FC3046
:10534C003E4600F08BF9F3E500232A4884F8BC3183
:10535C003E4600F083F9FAE50023274884F8FC3137
:10536C003E4600F07BF9F7E50023244884F83C32F4
:10537C003E4600F073F9F4E50023214884F87C32B2
:10538C003E4600F06BF9F1E500231E4884F83C31F1
:10539C003E4600F063F9D0E500231B4884F87C31CD
:1053AC003E4600F05BF9CDE50023184884F87C30CC
:1053BC003E4600F053F9B1E50023154884F87C33E0
:1053CC0000F04CF994E60023124884F8BC3300F04A
:1053DC0045F986E7104886EA050100F0ADFA00BFF2
:1053EC0084190020041900204419002004170020FF
:1053FC0044170020041800204418002084180020B2
:10540C00C418002084170020C4170020C4160020E4
:10541C00C4190020041A0020984900102DE9F04707
:10542C00848A058BC278A54228BF2546171E18BF53
:10543C000127641B467882F00102A4B20346C270B5
:10544C00848245F4806040EA4730A6BBD3E903264A
:10545C006F1E02EB811E55B3052F98BF721C31D9FC
:10546C0002EB811C721CACEB0204022C2AD93246D2
:10547C004FEA95094FEA890A06EB890852F8044B62
:10548C0042454CF8044BF9D15545A7EB0A070EEBF6
:10549C000A040AD016F829600EF829602FB1567844
:1054AC00012F667001D09278A2701E699C8A2E44DE
:1054BC001E6140F400400CB940F4804001B100047E
:1054CC00BDE8F0870EF1FF3E2E4400E0013212F8E9
:1054DC00014CB2420EF8014FF8D1E6E78368024660
:1054EC00186801B1000C5378C0F30900002B3CD0B4
:1054FC002DE9F041D2E90334461E03EB811E40B383
:10550C00052E3BD989014D1C1D44651B022D35D937
:10551C007346214600F47F774FEA9008FD1853F844
:10552C0004CBAB4241F804CBF9D1B842A6EB070649
:10553C0004EB07030EEB07010AD01EF8285004F801
:10554C0028502EB14C78012E5C7001D0897899705E
:10555C001469D38A04440344D382138B14618342A9
:10556C0084BF00239382BDE8F081D38A0344D382A5
:10557C00138B834284BF002393827047013C0EEB54
:10558C0000011EF8013B714504F8013FF9D1DFE73A
:10559C0010B50446836800211B68FFF79FFF636802
:1055AC001B685B0002D5238B834200D010BD2046C4
:1055BC00BDE810400121FFF791BF00BF084B1B6CE9
:1055CC0013F0020302D18278D20901D10020704776
:1055DC00C07EA0F10200B0FA80F04009704700BF15
:1055EC000000115008B5FFF7E9FF50B1054A064B12
:1055FC00906A1B68A0F54870C01AC6288CBF0020A2
:10560C00012008BD00000B405C1600200023C0E9FF
:10561C0004338376704700BF10B5836809B11C68EA
:10562C00214082B1114352050DD51A6854050CD492
:10563C00084A21F480641C60126C920703D40C237A
:10564C00033BFDD28368196010BD8178024800F0DD
:10565C0073F900BF00001150AC49001030B543681D
:10566C00002183B004461D68FFF7D8FE134B40F4AD
:10567C008052196CA37889070ED55B060ED025F0E5
:10568C00A04545F000550021204663681D6003B01D
:10569C00BDE83040FFF7C0BFDB09F0D0A38A002B78
:1056AC00EDD0012120460192FFF7B8FE019A25F0BA
:1056BC000055024345F0A045E5E700BF000011503E
:1056CC0038B5857E044695B1FFF762FFA38A0BB906
:1056DC00284638BD2046FFF785FF20B101232377EC
:1056EC000025284638BD2046FFF7B8FFF8E781783B
:1056FC00014800F021F900BFCC4900102DE9F0431E
:10570C0043788146023B0D4685B0042B13D8DFE865
:10571C0003F0034A6A73440000217B4B1A7822F091
:10572C0001021A701A7822F002021A7059701A7853
:10573C0061F382021A70754B1C686369EFF3108277
:10574C0072B6D3E8CF0F01210028FAD1C3E8401F6D
:10575C000028F6D1BFF35F8FA2614946204600F0C6
:10576C00F3F800236269C2E88F3FA36983F31088C2
:10577C0048B94FF0E023D3F8F03DDB070AD500BE63
:10578C0005B0BDE8F0832A4699F8011099F800009D
:10579C0000F0C6F805B0BDE8F0835D4A137801331C
:1057AC00DBB21370C7E700245A4E23463178DFF87A
:1057BC006C81594F11E03B6813EB441307D0DB6944
:1057CC002BB1D9F8041099F80000984731780134BE
:1057DC00E4B24A1CA242234617DBA142EBD85B1A67
:1057EC0008EB4313EBE7484B1A78D607D2D51A7857
:1057FC0042F004021A709EE7434B1A78D407C9D5BD
:10580C001A7822F004021A7095E73F4C2378580757
:10581C003AD4E378DA07BDD5032300263B4A99F83E
:10582C0000101468D9F804208DF804108DF8053098
:10583C006369CDF80660CDF80A60ADF80E6002928F
:10584C00EFF3108272B6D3E8CF0F01210028FAD102
:10585C00C3E8401F0028F6D1BFF35F8F2046A2613A
:10586C0001A900F071F86369C3E88F6FA36983F332
:10587C00108800283FF47DAF2A469DF805109DF84E
:10588C00040000F04DF885E72378002723F004038B
:10589C00237005231D4A8DF80530166899F80020F1
:1058AC00ADF80E708DF804207369CDF80670CDF844
:1058BC000A70EFF3108272B6D3E8CF0F01210028E3
:1058CC00FAD1C3E8401F0028F6D1BFF35F8F3046F2
:1058DC00B26101A900F038F87369C3E88F7FB3692E
:1058EC0083F3108838B94FF0E023D3F8F03DD90793
:1058FC008FD500BE8DE72A469DF805109DF8040053
:10590C0000F00EF885E700BF0012002058120020AE
:10591C00D71A0020D51A002030100020044C00109B
:10592C005FF800F08D2600105FF800F0F513001002
:10593C005FF800F0DD4500105FF800F03105001055
:10594C005FF800F0ED1200105FF800F065400010F9
:10595C00100000000000000000000100000000002A
:10596C000000000000000200000000000000000029
:10597C000000030000000000000000000000FF0019
:10598C000000000001B5486801318E4600477046A2
:10599C0009380149884701BD2D0A0010000000009C
:1059AC0000000000000000000000000000000000EB
:1059BC00A80E0020391E0010E51D00105D1D001002
:1059CC00CD1C001000000000000100005C12002043
:1059DC0010000C000000000000000000000000009F
:1059EC000000000000000000FF00000000000000AC
:0459FC0000000000A7
:105A0000D3DEFFFFFE010000FF01000038A7FFFF0B
:045A1000793512AB27
:040000051000014D99
:00000001FF
